{
  "_format": "hh-sol-artifact-1",
  "contractName": "stUSDC",
  "sourceName": "contracts/stUSDC.sol",
  "abi": [
    {
      "inputs": [
        {
          "internalType": "address",
          "name": "_wUSDCToken",
          "type": "address"
        }
      ],
      "stateMutability": "nonpayable",
      "type": "constructor"
    },
    {
      "inputs": [
        {
          "internalType": "address",
          "name": "spender",
          "type": "address"
        },
        {
          "internalType": "uint256",
          "name": "allowance",
          "type": "uint256"
        },
        {
          "internalType": "uint256",
          "name": "needed",
          "type": "uint256"
        }
      ],
      "name": "ERC20InsufficientAllowance",
      "type": "error"
    },
    {
      "inputs": [
        {
          "internalType": "address",
          "name": "sender",
          "type": "address"
        },
        {
          "internalType": "uint256",
          "name": "balance",
          "type": "uint256"
        },
        {
          "internalType": "uint256",
          "name": "needed",
          "type": "uint256"
        }
      ],
      "name": "ERC20InsufficientBalance",
      "type": "error"
    },
    {
      "inputs": [
        {
          "internalType": "address",
          "name": "approver",
          "type": "address"
        }
      ],
      "name": "ERC20InvalidApprover",
      "type": "error"
    },
    {
      "inputs": [
        {
          "internalType": "address",
          "name": "receiver",
          "type": "address"
        }
      ],
      "name": "ERC20InvalidReceiver",
      "type": "error"
    },
    {
      "inputs": [
        {
          "internalType": "address",
          "name": "sender",
          "type": "address"
        }
      ],
      "name": "ERC20InvalidSender",
      "type": "error"
    },
    {
      "inputs": [
        {
          "internalType": "address",
          "name": "spender",
          "type": "address"
        }
      ],
      "name": "ERC20InvalidSpender",
      "type": "error"
    },
    {
      "inputs": [
        {
          "internalType": "address",
          "name": "receiver",
          "type": "address"
        },
        {
          "internalType": "uint256",
          "name": "assets",
          "type": "uint256"
        },
        {
          "internalType": "uint256",
          "name": "max",
          "type": "uint256"
        }
      ],
      "name": "ERC4626ExceededMaxDeposit",
      "type": "error"
    },
    {
      "inputs": [
        {
          "internalType": "address",
          "name": "receiver",
          "type": "address"
        },
        {
          "internalType": "uint256",
          "name": "shares",
          "type": "uint256"
        },
        {
          "internalType": "uint256",
          "name": "max",
          "type": "uint256"
        }
      ],
      "name": "ERC4626ExceededMaxMint",
      "type": "error"
    },
    {
      "inputs": [
        {
          "internalType": "address",
          "name": "owner",
          "type": "address"
        },
        {
          "internalType": "uint256",
          "name": "shares",
          "type": "uint256"
        },
        {
          "internalType": "uint256",
          "name": "max",
          "type": "uint256"
        }
      ],
      "name": "ERC4626ExceededMaxRedeem",
      "type": "error"
    },
    {
      "inputs": [
        {
          "internalType": "address",
          "name": "owner",
          "type": "address"
        },
        {
          "internalType": "uint256",
          "name": "assets",
          "type": "uint256"
        },
        {
          "internalType": "uint256",
          "name": "max",
          "type": "uint256"
        }
      ],
      "name": "ERC4626ExceededMaxWithdraw",
      "type": "error"
    },
    {
      "inputs": [
        {
          "internalType": "address",
          "name": "owner",
          "type": "address"
        }
      ],
      "name": "OwnableInvalidOwner",
      "type": "error"
    },
    {
      "inputs": [
        {
          "internalType": "address",
          "name": "account",
          "type": "address"
        }
      ],
      "name": "OwnableUnauthorizedAccount",
      "type": "error"
    },
    {
      "anonymous": false,
      "inputs": [
        {
          "indexed": true,
          "internalType": "address",
          "name": "owner",
          "type": "address"
        },
        {
          "indexed": true,
          "internalType": "address",
          "name": "spender",
          "type": "address"
        },
        {
          "indexed": false,
          "internalType": "uint256",
          "name": "value",
          "type": "uint256"
        }
      ],
      "name": "Approval",
      "type": "event"
    },
    {
      "anonymous": false,
      "inputs": [
        {
          "indexed": true,
          "internalType": "address",
          "name": "sender",
          "type": "address"
        },
        {
          "indexed": true,
          "internalType": "address",
          "name": "owner",
          "type": "address"
        },
        {
          "indexed": false,
          "internalType": "uint256",
          "name": "assets",
          "type": "uint256"
        },
        {
          "indexed": false,
          "internalType": "uint256",
          "name": "shares",
          "type": "uint256"
        }
      ],
      "name": "Deposit",
      "type": "event"
    },
    {
      "anonymous": false,
      "inputs": [
        {
          "indexed": true,
          "internalType": "address",
          "name": "previousOwner",
          "type": "address"
        },
        {
          "indexed": true,
          "internalType": "address",
          "name": "newOwner",
          "type": "address"
        }
      ],
      "name": "OwnershipTransferred",
      "type": "event"
    },
    {
      "anonymous": false,
      "inputs": [
        {
          "indexed": true,
          "internalType": "address",
          "name": "from",
          "type": "address"
        },
        {
          "indexed": true,
          "internalType": "address",
          "name": "to",
          "type": "address"
        },
        {
          "indexed": false,
          "internalType": "uint256",
          "name": "value",
          "type": "uint256"
        }
      ],
      "name": "Transfer",
      "type": "event"
    },
    {
      "anonymous": false,
      "inputs": [
        {
          "indexed": true,
          "internalType": "address",
          "name": "sender",
          "type": "address"
        },
        {
          "indexed": true,
          "internalType": "address",
          "name": "receiver",
          "type": "address"
        },
        {
          "indexed": true,
          "internalType": "address",
          "name": "owner",
          "type": "address"
        },
        {
          "indexed": false,
          "internalType": "uint256",
          "name": "assets",
          "type": "uint256"
        },
        {
          "indexed": false,
          "internalType": "uint256",
          "name": "shares",
          "type": "uint256"
        }
      ],
      "name": "Withdraw",
      "type": "event"
    },
    {
      "anonymous": false,
      "inputs": [
        {
          "indexed": true,
          "internalType": "address",
          "name": "wUSDCAddress",
          "type": "address"
        }
      ],
      "name": "wUSDCAddressSet",
      "type": "event"
    },
    {
      "inputs": [
        {
          "internalType": "address",
          "name": "owner",
          "type": "address"
        },
        {
          "internalType": "address",
          "name": "spender",
          "type": "address"
        }
      ],
      "name": "allowance",
      "outputs": [
        {
          "internalType": "uint256",
          "name": "",
          "type": "uint256"
        }
      ],
      "stateMutability": "view",
      "type": "function"
    },
    {
      "inputs": [
        {
          "internalType": "address",
          "name": "spender",
          "type": "address"
        },
        {
          "internalType": "uint256",
          "name": "value",
          "type": "uint256"
        }
      ],
      "name": "approve",
      "outputs": [
        {
          "internalType": "bool",
          "name": "",
          "type": "bool"
        }
      ],
      "stateMutability": "nonpayable",
      "type": "function"
    },
    {
      "inputs": [],
      "name": "asset",
      "outputs": [
        {
          "internalType": "address",
          "name": "",
          "type": "address"
        }
      ],
      "stateMutability": "view",
      "type": "function"
    },
    {
      "inputs": [
        {
          "internalType": "address",
          "name": "account",
          "type": "address"
        }
      ],
      "name": "balanceOf",
      "outputs": [
        {
          "internalType": "uint256",
          "name": "",
          "type": "uint256"
        }
      ],
      "stateMutability": "view",
      "type": "function"
    },
    {
      "inputs": [
        {
          "internalType": "uint256",
          "name": "shares",
          "type": "uint256"
        }
      ],
      "name": "convertToAssets",
      "outputs": [
        {
          "internalType": "uint256",
          "name": "",
          "type": "uint256"
        }
      ],
      "stateMutability": "view",
      "type": "function"
    },
    {
      "inputs": [
        {
          "internalType": "uint256",
          "name": "assets",
          "type": "uint256"
        }
      ],
      "name": "convertToShares",
      "outputs": [
        {
          "internalType": "uint256",
          "name": "",
          "type": "uint256"
        }
      ],
      "stateMutability": "view",
      "type": "function"
    },
    {
      "inputs": [],
      "name": "decimals",
      "outputs": [
        {
          "internalType": "uint8",
          "name": "",
          "type": "uint8"
        }
      ],
      "stateMutability": "pure",
      "type": "function"
    },
    {
      "inputs": [
        {
          "internalType": "uint256",
          "name": "assets",
          "type": "uint256"
        },
        {
          "internalType": "address",
          "name": "receiver",
          "type": "address"
        }
      ],
      "name": "deposit",
      "outputs": [
        {
          "internalType": "uint256",
          "name": "",
          "type": "uint256"
        }
      ],
      "stateMutability": "nonpayable",
      "type": "function"
    },
    {
      "inputs": [],
      "name": "loanManager",
      "outputs": [
        {
          "internalType": "address",
          "name": "",
          "type": "address"
        }
      ],
      "stateMutability": "view",
      "type": "function"
    },
    {
      "inputs": [],
      "name": "loanedPUSDCAmount",
      "outputs": [
        {
          "internalType": "uint256",
          "name": "",
          "type": "uint256"
        }
      ],
      "stateMutability": "view",
      "type": "function"
    },
    {
      "inputs": [
        {
          "internalType": "address",
          "name": "",
          "type": "address"
        }
      ],
      "name": "maxDeposit",
      "outputs": [
        {
          "internalType": "uint256",
          "name": "",
          "type": "uint256"
        }
      ],
      "stateMutability": "view",
      "type": "function"
    },
    {
      "inputs": [
        {
          "internalType": "address",
          "name": "",
          "type": "address"
        }
      ],
      "name": "maxMint",
      "outputs": [
        {
          "internalType": "uint256",
          "name": "",
          "type": "uint256"
        }
      ],
      "stateMutability": "view",
      "type": "function"
    },
    {
      "inputs": [
        {
          "internalType": "address",
          "name": "owner",
          "type": "address"
        }
      ],
      "name": "maxRedeem",
      "outputs": [
        {
          "internalType": "uint256",
          "name": "",
          "type": "uint256"
        }
      ],
      "stateMutability": "view",
      "type": "function"
    },
    {
      "inputs": [
        {
          "internalType": "address",
          "name": "owner",
          "type": "address"
        }
      ],
      "name": "maxWithdraw",
      "outputs": [
        {
          "internalType": "uint256",
          "name": "",
          "type": "uint256"
        }
      ],
      "stateMutability": "view",
      "type": "function"
    },
    {
      "inputs": [
        {
          "internalType": "uint256",
          "name": "shares",
          "type": "uint256"
        },
        {
          "internalType": "address",
          "name": "receiver",
          "type": "address"
        }
      ],
      "name": "mint",
      "outputs": [
        {
          "internalType": "uint256",
          "name": "",
          "type": "uint256"
        }
      ],
      "stateMutability": "nonpayable",
      "type": "function"
    },
    {
      "inputs": [],
      "name": "name",
      "outputs": [
        {
          "internalType": "string",
          "name": "",
          "type": "string"
        }
      ],
      "stateMutability": "view",
      "type": "function"
    },
    {
      "inputs": [],
      "name": "owner",
      "outputs": [
        {
          "internalType": "address",
          "name": "",
          "type": "address"
        }
      ],
      "stateMutability": "view",
      "type": "function"
    },
    {
      "inputs": [
        {
          "internalType": "uint256",
          "name": "assets",
          "type": "uint256"
        }
      ],
      "name": "previewDeposit",
      "outputs": [
        {
          "internalType": "uint256",
          "name": "",
          "type": "uint256"
        }
      ],
      "stateMutability": "view",
      "type": "function"
    },
    {
      "inputs": [
        {
          "internalType": "uint256",
          "name": "shares",
          "type": "uint256"
        }
      ],
      "name": "previewMint",
      "outputs": [
        {
          "internalType": "uint256",
          "name": "",
          "type": "uint256"
        }
      ],
      "stateMutability": "view",
      "type": "function"
    },
    {
      "inputs": [
        {
          "internalType": "uint256",
          "name": "shares",
          "type": "uint256"
        }
      ],
      "name": "previewRedeem",
      "outputs": [
        {
          "internalType": "uint256",
          "name": "",
          "type": "uint256"
        }
      ],
      "stateMutability": "view",
      "type": "function"
    },
    {
      "inputs": [
        {
          "internalType": "uint256",
          "name": "assets",
          "type": "uint256"
        }
      ],
      "name": "previewWithdraw",
      "outputs": [
        {
          "internalType": "uint256",
          "name": "",
          "type": "uint256"
        }
      ],
      "stateMutability": "view",
      "type": "function"
    },
    {
      "inputs": [
        {
          "internalType": "uint256",
          "name": "shares",
          "type": "uint256"
        },
        {
          "internalType": "address",
          "name": "receiver",
          "type": "address"
        },
        {
          "internalType": "address",
          "name": "owner",
          "type": "address"
        }
      ],
      "name": "redeem",
      "outputs": [
        {
          "internalType": "uint256",
          "name": "",
          "type": "uint256"
        }
      ],
      "stateMutability": "nonpayable",
      "type": "function"
    },
    {
      "inputs": [],
      "name": "renounceOwnership",
      "outputs": [],
      "stateMutability": "nonpayable",
      "type": "function"
    },
    {
      "inputs": [
        {
          "internalType": "address",
          "name": "_loanManager",
          "type": "address"
        }
      ],
      "name": "setLoanManager",
      "outputs": [],
      "stateMutability": "nonpayable",
      "type": "function"
    },
    {
      "inputs": [],
      "name": "symbol",
      "outputs": [
        {
          "internalType": "string",
          "name": "",
          "type": "string"
        }
      ],
      "stateMutability": "view",
      "type": "function"
    },
    {
      "inputs": [],
      "name": "totalAssets",
      "outputs": [
        {
          "internalType": "uint256",
          "name": "",
          "type": "uint256"
        }
      ],
      "stateMutability": "view",
      "type": "function"
    },
    {
      "inputs": [],
      "name": "totalSupply",
      "outputs": [
        {
          "internalType": "uint256",
          "name": "",
          "type": "uint256"
        }
      ],
      "stateMutability": "view",
      "type": "function"
    },
    {
      "inputs": [
        {
          "internalType": "address",
          "name": "to",
          "type": "address"
        },
        {
          "internalType": "uint256",
          "name": "value",
          "type": "uint256"
        }
      ],
      "name": "transfer",
      "outputs": [
        {
          "internalType": "bool",
          "name": "",
          "type": "bool"
        }
      ],
      "stateMutability": "nonpayable",
      "type": "function"
    },
    {
      "inputs": [
        {
          "internalType": "address",
          "name": "from",
          "type": "address"
        },
        {
          "internalType": "address",
          "name": "to",
          "type": "address"
        },
        {
          "internalType": "uint256",
          "name": "value",
          "type": "uint256"
        }
      ],
      "name": "transferFrom",
      "outputs": [
        {
          "internalType": "bool",
          "name": "",
          "type": "bool"
        }
      ],
      "stateMutability": "nonpayable",
      "type": "function"
    },
    {
      "inputs": [
        {
          "internalType": "uint256",
          "name": "pUSDCAmount",
          "type": "uint256"
        },
        {
          "internalType": "address",
          "name": "operator",
          "type": "address"
        }
      ],
      "name": "transferFromOperator",
      "outputs": [
        {
          "internalType": "bool",
          "name": "",
          "type": "bool"
        }
      ],
      "stateMutability": "nonpayable",
      "type": "function"
    },
    {
      "inputs": [
        {
          "internalType": "address",
          "name": "newOwner",
          "type": "address"
        }
      ],
      "name": "transferOwnership",
      "outputs": [],
      "stateMutability": "nonpayable",
      "type": "function"
    },
    {
      "inputs": [
        {
          "internalType": "uint256",
          "name": "pUSDCAmount",
          "type": "uint256"
        },
        {
          "internalType": "address",
          "name": "operator",
          "type": "address"
        }
      ],
      "name": "transferToOperator",
      "outputs": [
        {
          "internalType": "bool",
          "name": "",
          "type": "bool"
        }
      ],
      "stateMutability": "nonpayable",
      "type": "function"
    },
    {
      "inputs": [],
      "name": "wUSDCToken",
      "outputs": [
        {
          "internalType": "contract wUSDC",
          "name": "",
          "type": "address"
        }
      ],
      "stateMutability": "view",
      "type": "function"
    },
    {
      "inputs": [
        {
          "internalType": "uint256",
          "name": "assets",
          "type": "uint256"
        },
        {
          "internalType": "address",
          "name": "receiver",
          "type": "address"
        },
        {
          "internalType": "address",
          "name": "owner",
          "type": "address"
        }
      ],
      "name": "withdraw",
      "outputs": [
        {
          "internalType": "uint256",
          "name": "",
          "type": "uint256"
        }
      ],
      "stateMutability": "nonpayable",
      "type": "function"
    }
  ],
  "bytecode": "0x60c0604052600060085534801561001557600080fd5b50604051613584380380613584833981810160405281019061003791906104a0565b33816040518060400160405280600c81526020017f5374616b656420775553444300000000000000000000000000000000000000008152506040518060400160405280600681526020017f737455534443000000000000000000000000000000000000000000000000000081525081600390816100b4919061071d565b5080600490816100c4919061071d565b5050506000806100d98361026760201b60201c565b91509150816100e95760126100eb565b805b60ff1660a08160ff16815250508273ffffffffffffffffffffffffffffffffffffffff1660808173ffffffffffffffffffffffffffffffffffffffff1681525050505050600073ffffffffffffffffffffffffffffffffffffffff168173ffffffffffffffffffffffffffffffffffffffff16036101a15760006040517f1e4fbdf700000000000000000000000000000000000000000000000000000000815260040161019891906107fe565b60405180910390fd5b6101b08161037760201b60201c565b50600073ffffffffffffffffffffffffffffffffffffffff168173ffffffffffffffffffffffffffffffffffffffff1603610220576040517f08c379a000000000000000000000000000000000000000000000000000000000815260040161021790610876565b60405180910390fd5b80600660006101000a81548173ffffffffffffffffffffffffffffffffffffffff021916908373ffffffffffffffffffffffffffffffffffffffff16021790555050610977565b6000806000808473ffffffffffffffffffffffffffffffffffffffff1660405160240160405160208183030381529060405263313ce56760e01b6020820180517bffffffffffffffffffffffffffffffffffffffffffffffffffffffff83818316178352505050506040516102dc9190610907565b600060405180830381855afa9150503d8060008114610317576040519150601f19603f3d011682016040523d82523d6000602084013e61031c565b606091505b509150915081801561033057506020815110155b156103685760008180602001905181019061034b919061094a565b905060ff801681116103665760018194509450505050610372565b505b6000809350935050505b915091565b6000600560009054906101000a900473ffffffffffffffffffffffffffffffffffffffff16905081600560006101000a81548173ffffffffffffffffffffffffffffffffffffffff021916908373ffffffffffffffffffffffffffffffffffffffff1602179055508173ffffffffffffffffffffffffffffffffffffffff168173ffffffffffffffffffffffffffffffffffffffff167f8be0079c531659141344cd1fd0a4f28419497f9722a3daafe3b4186f6b6457e060405160405180910390a35050565b600080fd5b600073ffffffffffffffffffffffffffffffffffffffff82169050919050565b600061046d82610442565b9050919050565b61047d81610462565b811461048857600080fd5b50565b60008151905061049a81610474565b92915050565b6000602082840312156104b6576104b561043d565b5b60006104c48482850161048b565b91505092915050565b600081519050919050565b7f4e487b7100000000000000000000000000000000000000000000000000000000600052604160045260246000fd5b7f4e487b7100000000000000000000000000000000000000000000000000000000600052602260045260246000fd5b6000600282049050600182168061054e57607f821691505b60208210810361056157610560610507565b5b50919050565b60008190508160005260206000209050919050565b60006020601f8301049050919050565b600082821b905092915050565b6000600883026105c97fffffffffffffffffffffffffffffffffffffffffffffffffffffffffffffffff8261058c565b6105d3868361058c565b95508019841693508086168417925050509392505050565b6000819050919050565b6000819050919050565b600061061a610615610610846105eb565b6105f5565b6105eb565b9050919050565b6000819050919050565b610634836105ff565b61064861064082610621565b848454610599565b825550505050565b600090565b61065d610650565b61066881848461062b565b505050565b5b8181101561068c57610681600082610655565b60018101905061066e565b5050565b601f8211156106d1576106a281610567565b6106ab8461057c565b810160208510156106ba578190505b6106ce6106c68561057c565b83018261066d565b50505b505050565b600082821c905092915050565b60006106f4600019846008026106d6565b1980831691505092915050565b600061070d83836106e3565b9150826002028217905092915050565b610726826104cd565b67ffffffffffffffff81111561073f5761073e6104d8565b5b6107498254610536565b610754828285610690565b600060209050601f8311600181146107875760008415610775578287015190505b61077f8582610701565b8655506107e7565b601f19841661079586610567565b60005b828110156107bd57848901518255600182019150602085019450602081019050610798565b868310156107da57848901516107d6601f8916826106e3565b8355505b6001600288020188555050505b505050505050565b6107f881610462565b82525050565b600060208201905061081360008301846107ef565b92915050565b600082825260208201905092915050565b7f775553444320616464726573732063616e6e6f74206265207a65726f00000000600082015250565b6000610860601c83610819565b915061086b8261082a565b602082019050919050565b6000602082019050818103600083015261088f81610853565b9050919050565b600081519050919050565b600081905092915050565b60005b838110156108ca5780820151818401526020810190506108af565b60008484015250505050565b60006108e182610896565b6108eb81856108a1565b93506108fb8185602086016108ac565b80840191505092915050565b600061091382846108d6565b915081905092915050565b610927816105eb565b811461093257600080fd5b50565b6000815190506109448161091e565b92915050565b6000602082840312156109605761095f61043d565b5b600061096e84828501610935565b91505092915050565b60805160a051612beb610999600039600050506000610bb10152612beb6000f3fe608060405234801561001057600080fd5b50600436106102065760003560e01c80638da5cb5b1161011a578063ba087652116100ad578063d905777e1161007c578063d905777e1461068d578063dc57225b146106bd578063dd62ed3e146106ed578063ef8b30f71461071d578063f2fde38b1461074d57610206565b8063ba087652146105cd578063c63d75b6146105fd578063c6e6f5921461062d578063ce96cb771461065d57610206565b8063a9059cbb116100e9578063a9059cbb1461051f578063b3ccbcfe1461054f578063b3d7f6b91461056d578063b460af941461059d57610206565b80638da5cb5b1461049557806394bf804d146104b357806395d89b41146104e3578063a15718db1461050157610206565b80632e790f621161019d5780634cdad5061161016c5780634cdad506146103df5780635772ae701461040f5780636e553f651461042b57806370a082311461045b578063715018a61461048b57610206565b80632e790f6214610355578063313ce5671461037357806338d52e0f14610391578063402d267d146103af57610206565b80630a28a477116101d95780630a28a477146102a75780630f9facbe146102d757806318160ddd1461030757806323b872dd1461032557610206565b806301e1d1141461020b57806306fdde031461022957806307a2d13a14610247578063095ea7b314610277575b600080fd5b610213610769565b604051610220919061213b565b60405180910390f35b6102316107f1565b60405161023e91906121e6565b60405180910390f35b610261600480360381019061025c9190612239565b610883565b60405161026e919061213b565b60405180910390f35b610291600480360381019061028c91906122c4565b610897565b60405161029e919061231f565b60405180910390f35b6102c160048036038101906102bc9190612239565b6108ba565b6040516102ce919061213b565b60405180910390f35b6102f160048036038101906102ec919061233a565b6108ce565b6040516102fe919061231f565b60405180910390f35b61030f610b45565b60405161031c919061213b565b60405180910390f35b61033f600480360381019061033a919061237a565b610b4f565b60405161034c919061231f565b60405180910390f35b61035d610b7e565b60405161036a919061242c565b60405180910390f35b61037b610ba4565b6040516103889190612463565b60405180910390f35b610399610bad565b6040516103a6919061248d565b60405180910390f35b6103c960048036038101906103c491906124a8565b610bd5565b6040516103d6919061213b565b60405180910390f35b6103f960048036038101906103f49190612239565b610bff565b604051610406919061213b565b60405180910390f35b610429600480360381019061042491906124a8565b610c13565b005b6104456004803603810190610440919061233a565b610cce565b604051610452919061213b565b60405180910390f35b610475600480360381019061047091906124a8565b610d50565b604051610482919061213b565b60405180910390f35b610493610d98565b005b61049d610dac565b6040516104aa919061248d565b60405180910390f35b6104cd60048036038101906104c8919061233a565b610dd6565b6040516104da919061213b565b60405180910390f35b6104eb610e58565b6040516104f891906121e6565b60405180910390f35b610509610eea565b604051610516919061213b565b60405180910390f35b610539600480360381019061053491906122c4565b610ef0565b604051610546919061231f565b60405180910390f35b610557610f13565b604051610564919061248d565b60405180910390f35b61058760048036038101906105829190612239565b610f39565b604051610594919061213b565b60405180910390f35b6105b760048036038101906105b291906124d5565b610f4d565b6040516105c4919061213b565b60405180910390f35b6105e760048036038101906105e291906124d5565b610fd1565b6040516105f4919061213b565b60405180910390f35b610617600480360381019061061291906124a8565b611055565b604051610624919061213b565b60405180910390f35b61064760048036038101906106429190612239565b61107f565b604051610654919061213b565b60405180910390f35b610677600480360381019061067291906124a8565b611093565b604051610684919061213b565b60405180910390f35b6106a760048036038101906106a291906124a8565b6110af565b6040516106b4919061213b565b60405180910390f35b6106d760048036038101906106d2919061233a565b6110c1565b6040516106e4919061231f565b60405180910390f35b61070760048036038101906107029190612528565b611317565b604051610714919061213b565b60405180910390f35b61073760048036038101906107329190612239565b61139e565b604051610744919061213b565b60405180910390f35b610767600480360381019061076291906124a8565b6113b2565b005b6000610773610bad565b73ffffffffffffffffffffffffffffffffffffffff166370a08231306040518263ffffffff1660e01b81526004016107ab919061248d565b602060405180830381865afa1580156107c8573d6000803e3d6000fd5b505050506040513d601f19601f820116820180604052508101906107ec919061257d565b905090565b606060038054610800906125d9565b80601f016020809104026020016040519081016040528092919081815260200182805461082c906125d9565b80156108795780601f1061084e57610100808354040283529160200191610879565b820191906000526020600020905b81548152906001019060200180831161085c57829003601f168201915b5050505050905090565b6000610890826000611438565b9050919050565b6000806108a2611491565b90506108af818585611499565b600191505092915050565b60006108c78260016114ab565b9050919050565b6000600760009054906101000a900473ffffffffffffffffffffffffffffffffffffffff1673ffffffffffffffffffffffffffffffffffffffff163373ffffffffffffffffffffffffffffffffffffffff1614610960576040517f08c379a00000000000000000000000000000000000000000000000000000000081526004016109579061267c565b60405180910390fd5b600083116109a3576040517f08c379a000000000000000000000000000000000000000000000000000000000815260040161099a9061270e565b60405180910390fd5b82600660009054906101000a900473ffffffffffffffffffffffffffffffffffffffff1673ffffffffffffffffffffffffffffffffffffffff166370a08231306040518263ffffffff1660e01b81526004016109ff919061248d565b602060405180830381865afa158015610a1c573d6000803e3d6000fd5b505050506040513d601f19601f82011682018060405250810190610a40919061257d565b1015610a81576040517f08c379a0000000000000000000000000000000000000000000000000000000008152600401610a789061277a565b60405180910390fd5b600660009054906101000a900473ffffffffffffffffffffffffffffffffffffffff1673ffffffffffffffffffffffffffffffffffffffff1663a9059cbb83856040518363ffffffff1660e01b8152600401610ade92919061279a565b6020604051808303816000875af1158015610afd573d6000803e3d6000fd5b505050506040513d601f19601f82011682018060405250810190610b2191906127ef565b508260086000828254610b34919061284b565b925050819055506001905092915050565b6000600254905090565b600080610b5a611491565b9050610b67858285611504565b610b72858585611599565b60019150509392505050565b600660009054906101000a900473ffffffffffffffffffffffffffffffffffffffff1681565b60006012905090565b60007f0000000000000000000000000000000000000000000000000000000000000000905090565b60007fffffffffffffffffffffffffffffffffffffffffffffffffffffffffffffffff9050919050565b6000610c0c826000611438565b9050919050565b610c1b61168d565b600073ffffffffffffffffffffffffffffffffffffffff168173ffffffffffffffffffffffffffffffffffffffff1603610c8a576040517f08c379a0000000000000000000000000000000000000000000000000000000008152600401610c81906128f1565b60405180910390fd5b80600760006101000a81548173ffffffffffffffffffffffffffffffffffffffff021916908373ffffffffffffffffffffffffffffffffffffffff16021790555050565b600080610cda83610bd5565b905080841115610d25578284826040517f79012fb2000000000000000000000000000000000000000000000000000000008152600401610d1c93929190612911565b60405180910390fd5b6000610d308561139e565b9050610d45610d3d611491565b858784611714565b809250505092915050565b60008060008373ffffffffffffffffffffffffffffffffffffffff1673ffffffffffffffffffffffffffffffffffffffff168152602001908152602001600020549050919050565b610da061168d565b610daa600061182c565b565b6000600560009054906101000a900473ffffffffffffffffffffffffffffffffffffffff16905090565b600080610de283611055565b905080841115610e2d578284826040517f284ff667000000000000000000000000000000000000000000000000000000008152600401610e2493929190612911565b60405180910390fd5b6000610e3885610f39565b9050610e4d610e45611491565b858388611714565b809250505092915050565b606060048054610e67906125d9565b80601f0160208091040260200160405190810160405280929190818152602001828054610e93906125d9565b8015610ee05780601f10610eb557610100808354040283529160200191610ee0565b820191906000526020600020905b815481529060010190602001808311610ec357829003601f168201915b5050505050905090565b60085481565b600080610efb611491565b9050610f08818585611599565b600191505092915050565b600760009054906101000a900473ffffffffffffffffffffffffffffffffffffffff1681565b6000610f46826001611438565b9050919050565b600080610f5983611093565b905080851115610fa4578285826040517ffe9cceec000000000000000000000000000000000000000000000000000000008152600401610f9b93929190612911565b60405180910390fd5b6000610faf866108ba565b9050610fc5610fbc611491565b868689856118f2565b80925050509392505050565b600080610fdd836110af565b905080851115611028578285826040517fb94abeec00000000000000000000000000000000000000000000000000000000815260040161101f93929190612911565b60405180910390fd5b600061103386610bff565b9050611049611040611491565b8686848a6118f2565b80925050509392505050565b60007fffffffffffffffffffffffffffffffffffffffffffffffffffffffffffffffff9050919050565b600061108c8260006114ab565b9050919050565b60006110a86110a183610d50565b6000611438565b9050919050565b60006110ba82610d50565b9050919050565b6000600760009054906101000a900473ffffffffffffffffffffffffffffffffffffffff1673ffffffffffffffffffffffffffffffffffffffff163373ffffffffffffffffffffffffffffffffffffffff1614611153576040517f08c379a000000000000000000000000000000000000000000000000000000000815260040161114a9061267c565b60405180910390fd5b60008311611196576040517f08c379a000000000000000000000000000000000000000000000000000000000815260040161118d9061270e565b60405180910390fd5b82600660009054906101000a900473ffffffffffffffffffffffffffffffffffffffff1673ffffffffffffffffffffffffffffffffffffffff166370a08231846040518263ffffffff1660e01b81526004016111f2919061248d565b602060405180830381865afa15801561120f573d6000803e3d6000fd5b505050506040513d601f19601f82011682018060405250810190611233919061257d565b1015611274576040517f08c379a000000000000000000000000000000000000000000000000000000000815260040161126b9061277a565b60405180910390fd5b600660009054906101000a900473ffffffffffffffffffffffffffffffffffffffff1673ffffffffffffffffffffffffffffffffffffffff166303bf63448484306040518463ffffffff1660e01b81526004016112d393929190612948565b600060405180830381600087803b1580156112ed57600080fd5b505af1158015611301573d6000803e3d6000fd5b5050505060006008819055506001905092915050565b6000600160008473ffffffffffffffffffffffffffffffffffffffff1673ffffffffffffffffffffffffffffffffffffffff16815260200190815260200160002060008373ffffffffffffffffffffffffffffffffffffffff1673ffffffffffffffffffffffffffffffffffffffff16815260200190815260200160002054905092915050565b60006113ab8260006114ab565b9050919050565b6113ba61168d565b600073ffffffffffffffffffffffffffffffffffffffff168173ffffffffffffffffffffffffffffffffffffffff160361142c5760006040517f1e4fbdf7000000000000000000000000000000000000000000000000000000008152600401611423919061248d565b60405180910390fd5b6114358161182c565b50565b60006114896001611447610769565b611451919061284b565b611459611a61565b600a6114659190612ab2565b61146d610b45565b611477919061284b565b8486611a66909392919063ffffffff16565b905092915050565b600033905090565b6114a68383836001611ab5565b505050565b60006114fc6114b8611a61565b600a6114c49190612ab2565b6114cc610b45565b6114d6919061284b565b60016114e0610769565b6114ea919061284b565b8486611a66909392919063ffffffff16565b905092915050565b60006115108484611317565b90507fffffffffffffffffffffffffffffffffffffffffffffffffffffffffffffffff8110156115935781811015611583578281836040517ffb8f41b200000000000000000000000000000000000000000000000000000000815260040161157a93929190612911565b60405180910390fd5b61159284848484036000611ab5565b5b50505050565b600073ffffffffffffffffffffffffffffffffffffffff168373ffffffffffffffffffffffffffffffffffffffff160361160b5760006040517f96c6fd1e000000000000000000000000000000000000000000000000000000008152600401611602919061248d565b60405180910390fd5b600073ffffffffffffffffffffffffffffffffffffffff168273ffffffffffffffffffffffffffffffffffffffff160361167d5760006040517fec442f05000000000000000000000000000000000000000000000000000000008152600401611674919061248d565b60405180910390fd5b611688838383611c8c565b505050565b611695611491565b73ffffffffffffffffffffffffffffffffffffffff166116b3610dac565b73ffffffffffffffffffffffffffffffffffffffff1614611712576116d6611491565b6040517f118cdaa7000000000000000000000000000000000000000000000000000000008152600401611709919061248d565b60405180910390fd5b565b600660009054906101000a900473ffffffffffffffffffffffffffffffffffffffff1673ffffffffffffffffffffffffffffffffffffffff16636cc30d2e85846040518363ffffffff1660e01b815260040161177192919061279a565b6020604051808303816000875af1158015611790573d6000803e3d6000fd5b505050506040513d601f19601f820116820180604052508101906117b491906127ef565b506117bf8382611eb1565b8273ffffffffffffffffffffffffffffffffffffffff168473ffffffffffffffffffffffffffffffffffffffff167fdcbc1c05240f31ff3ad067ef1ee35ce4997762752e3a095284754544f4c709d7848460405161181e929190612afd565b60405180910390a350505050565b6000600560009054906101000a900473ffffffffffffffffffffffffffffffffffffffff16905081600560006101000a81548173ffffffffffffffffffffffffffffffffffffffff021916908373ffffffffffffffffffffffffffffffffffffffff1602179055508173ffffffffffffffffffffffffffffffffffffffff168173ffffffffffffffffffffffffffffffffffffffff167f8be0079c531659141344cd1fd0a4f28419497f9722a3daafe3b4186f6b6457e060405160405180910390a35050565b8273ffffffffffffffffffffffffffffffffffffffff168573ffffffffffffffffffffffffffffffffffffffff161461193157611930838683611504565b5b61193b8382611f33565b600660009054906101000a900473ffffffffffffffffffffffffffffffffffffffff1673ffffffffffffffffffffffffffffffffffffffff1663a9059cbb85846040518363ffffffff1660e01b815260040161199892919061279a565b6020604051808303816000875af11580156119b7573d6000803e3d6000fd5b505050506040513d601f19601f820116820180604052508101906119db91906127ef565b508273ffffffffffffffffffffffffffffffffffffffff168473ffffffffffffffffffffffffffffffffffffffff168673ffffffffffffffffffffffffffffffffffffffff167ffbde797d201c681b91056529119e0b02407c7bb96a4a2c75c01fc9667232c8db8585604051611a52929190612afd565b60405180910390a45050505050565b600090565b6000611a96611a7483611fb5565b8015611a91575060008480611a8c57611a8b612b26565b5b868809115b611fe3565b611aa1868686611fef565b611aab919061284b565b9050949350505050565b600073ffffffffffffffffffffffffffffffffffffffff168473ffffffffffffffffffffffffffffffffffffffff1603611b275760006040517fe602df05000000000000000000000000000000000000000000000000000000008152600401611b1e919061248d565b60405180910390fd5b600073ffffffffffffffffffffffffffffffffffffffff168373ffffffffffffffffffffffffffffffffffffffff1603611b995760006040517f94280d62000000000000000000000000000000000000000000000000000000008152600401611b90919061248d565b60405180910390fd5b81600160008673ffffffffffffffffffffffffffffffffffffffff1673ffffffffffffffffffffffffffffffffffffffff16815260200190815260200160002060008573ffffffffffffffffffffffffffffffffffffffff1673ffffffffffffffffffffffffffffffffffffffff168152602001908152602001600020819055508015611c86578273ffffffffffffffffffffffffffffffffffffffff168473ffffffffffffffffffffffffffffffffffffffff167f8c5be1e5ebec7d5bd14f71427d1e84f3dd0314c0f7b2291e5b200ac8c7c3b92584604051611c7d919061213b565b60405180910390a35b50505050565b600073ffffffffffffffffffffffffffffffffffffffff168373ffffffffffffffffffffffffffffffffffffffff1603611cde578060026000828254611cd2919061284b565b92505081905550611db1565b60008060008573ffffffffffffffffffffffffffffffffffffffff1673ffffffffffffffffffffffffffffffffffffffff16815260200190815260200160002054905081811015611d6a578381836040517fe450d38c000000000000000000000000000000000000000000000000000000008152600401611d6193929190612911565b60405180910390fd5b8181036000808673ffffffffffffffffffffffffffffffffffffffff1673ffffffffffffffffffffffffffffffffffffffff16815260200190815260200160002081905550505b600073ffffffffffffffffffffffffffffffffffffffff168273ffffffffffffffffffffffffffffffffffffffff1603611dfa5780600260008282540392505081905550611e47565b806000808473ffffffffffffffffffffffffffffffffffffffff1673ffffffffffffffffffffffffffffffffffffffff168152602001908152602001600020600082825401925050819055505b8173ffffffffffffffffffffffffffffffffffffffff168373ffffffffffffffffffffffffffffffffffffffff167fddf252ad1be2c89b69c2b068fc378daa952ba7f163c4a11628f55a4df523b3ef83604051611ea4919061213b565b60405180910390a3505050565b600073ffffffffffffffffffffffffffffffffffffffff168273ffffffffffffffffffffffffffffffffffffffff1603611f235760006040517fec442f05000000000000000000000000000000000000000000000000000000008152600401611f1a919061248d565b60405180910390fd5b611f2f60008383611c8c565b5050565b600073ffffffffffffffffffffffffffffffffffffffff168273ffffffffffffffffffffffffffffffffffffffff1603611fa55760006040517f96c6fd1e000000000000000000000000000000000000000000000000000000008152600401611f9c919061248d565b60405180910390fd5b611fb182600083611c8c565b5050565b600060016002836003811115611fce57611fcd612b55565b5b611fd89190612b84565b60ff16149050919050565b60008115159050919050565b6000806000611ffe86866120d7565b91509150600082036120245783818161201a57612019612b26565b5b04925050506120d0565b8184116120445761204361203e60008614601260116120f6565b612110565b5b600084868809905081811183039250808203915060008560000386169050808604955080830492506001818260000304019050808402831792506000600287600302189050808702600203810290508087026002038102905080870260020381029050808702600203810290508087026002038102905080870260020381029050808402955050505050505b9392505050565b6000806000198385098385029150818110828203039250509250929050565b600061210184611fe3565b82841802821890509392505050565b634e487b71600052806020526024601cfd5b6000819050919050565b61213581612122565b82525050565b6000602082019050612150600083018461212c565b92915050565b600081519050919050565b600082825260208201905092915050565b60005b83811015612190578082015181840152602081019050612175565b60008484015250505050565b6000601f19601f8301169050919050565b60006121b882612156565b6121c28185612161565b93506121d2818560208601612172565b6121db8161219c565b840191505092915050565b6000602082019050818103600083015261220081846121ad565b905092915050565b600080fd5b61221681612122565b811461222157600080fd5b50565b6000813590506122338161220d565b92915050565b60006020828403121561224f5761224e612208565b5b600061225d84828501612224565b91505092915050565b600073ffffffffffffffffffffffffffffffffffffffff82169050919050565b600061229182612266565b9050919050565b6122a181612286565b81146122ac57600080fd5b50565b6000813590506122be81612298565b92915050565b600080604083850312156122db576122da612208565b5b60006122e9858286016122af565b92505060206122fa85828601612224565b9150509250929050565b60008115159050919050565b61231981612304565b82525050565b60006020820190506123346000830184612310565b92915050565b6000806040838503121561235157612350612208565b5b600061235f85828601612224565b9250506020612370858286016122af565b9150509250929050565b60008060006060848603121561239357612392612208565b5b60006123a1868287016122af565b93505060206123b2868287016122af565b92505060406123c386828701612224565b9150509250925092565b6000819050919050565b60006123f26123ed6123e884612266565b6123cd565b612266565b9050919050565b6000612404826123d7565b9050919050565b6000612416826123f9565b9050919050565b6124268161240b565b82525050565b6000602082019050612441600083018461241d565b92915050565b600060ff82169050919050565b61245d81612447565b82525050565b60006020820190506124786000830184612454565b92915050565b61248781612286565b82525050565b60006020820190506124a2600083018461247e565b92915050565b6000602082840312156124be576124bd612208565b5b60006124cc848285016122af565b91505092915050565b6000806000606084860312156124ee576124ed612208565b5b60006124fc86828701612224565b935050602061250d868287016122af565b925050604061251e868287016122af565b9150509250925092565b6000806040838503121561253f5761253e612208565b5b600061254d858286016122af565b925050602061255e858286016122af565b9150509250929050565b6000815190506125778161220d565b92915050565b60006020828403121561259357612592612208565b5b60006125a184828501612568565b91505092915050565b7f4e487b7100000000000000000000000000000000000000000000000000000000600052602260045260246000fd5b600060028204905060018216806125f157607f821691505b602082108103612604576126036125aa565b5b50919050565b7f4f6e6c79206c6f616e206d616e616765722063616e2063616c6c20746869732060008201527f66756e6374696f6e000000000000000000000000000000000000000000000000602082015250565b6000612666602883612161565b91506126718261260a565b604082019050919050565b6000602082019050818103600083015261269581612659565b9050919050565b7f5472616e7366657220616d6f756e74206d75737420626520677265617465722060008201527f7468616e207a65726f0000000000000000000000000000000000000000000000602082015250565b60006126f8602983612161565b91506127038261269c565b604082019050919050565b60006020820190508181036000830152612727816126eb565b9050919050565b7f496e73756666696369656e742050555344432062616c616e6365000000000000600082015250565b6000612764601a83612161565b915061276f8261272e565b602082019050919050565b6000602082019050818103600083015261279381612757565b9050919050565b60006040820190506127af600083018561247e565b6127bc602083018461212c565b9392505050565b6127cc81612304565b81146127d757600080fd5b50565b6000815190506127e9816127c3565b92915050565b60006020828403121561280557612804612208565b5b6000612813848285016127da565b91505092915050565b7f4e487b7100000000000000000000000000000000000000000000000000000000600052601160045260246000fd5b600061285682612122565b915061286183612122565b92508282019050808211156128795761287861281c565b5b92915050565b7f4c6f616e206d616e6167657220616464726573732063616e6e6f74206265207a60008201527f65726f0000000000000000000000000000000000000000000000000000000000602082015250565b60006128db602383612161565b91506128e68261287f565b604082019050919050565b6000602082019050818103600083015261290a816128ce565b9050919050565b6000606082019050612926600083018661247e565b612933602083018561212c565b612940604083018461212c565b949350505050565b600060608201905061295d600083018661212c565b61296a602083018561247e565b612977604083018461247e565b949350505050565b60008160011c9050919050565b6000808291508390505b60018511156129d6578086048111156129b2576129b161281c565b5b60018516156129c15780820291505b80810290506129cf8561297f565b9450612996565b94509492505050565b6000826129ef5760019050612aab565b816129fd5760009050612aab565b8160018114612a135760028114612a1d57612a4c565b6001915050612aab565b60ff841115612a2f57612a2e61281c565b5b8360020a915084821115612a4657612a4561281c565b5b50612aab565b5060208310610133831016604e8410600b8410161715612a815782820a905083811115612a7c57612a7b61281c565b5b612aab565b612a8e848484600161298c565b92509050818404811115612aa557612aa461281c565b5b81810290505b9392505050565b6000612abd82612122565b9150612ac883612447565b9250612af57fffffffffffffffffffffffffffffffffffffffffffffffffffffffffffffffff84846129df565b905092915050565b6000604082019050612b12600083018561212c565b612b1f602083018461212c565b9392505050565b7f4e487b7100000000000000000000000000000000000000000000000000000000600052601260045260246000fd5b7f4e487b7100000000000000000000000000000000000000000000000000000000600052602160045260246000fd5b6000612b8f82612447565b9150612b9a83612447565b925082612baa57612ba9612b26565b5b82820690509291505056fea26469706673582212200b7fa61b6ca7da92a7cf210c6d9d47c46a55cf0b74139477b9349a278d107c9b64736f6c634300081c0033",
  "linkReferences": {},
  "deployedLinkReferences": {}
}