{
  "_format": "hh-sol-artifact-1",
  "contractName": "LoanManager",
  "sourceName": "contracts/LoanManager.sol",
  "abi": [
    {
      "inputs": [
        {
          "internalType": "address",
          "name": "_eigen",
          "type": "address"
        },
        {
          "internalType": "address",
          "name": "_sCUSDToken",
          "type": "address"
        },
        {
          "internalType": "address",
          "name": "_operator",
          "type": "address"
        }
      ],
      "stateMutability": "nonpayable",
      "type": "constructor"
    },
    {
      "inputs": [
        {
          "internalType": "address",
          "name": "owner",
          "type": "address"
        }
      ],
      "name": "OwnableInvalidOwner",
      "type": "error"
    },
    {
      "inputs": [
        {
          "internalType": "address",
          "name": "account",
          "type": "address"
        }
      ],
      "name": "OwnableUnauthorizedAccount",
      "type": "error"
    },
    {
      "anonymous": false,
      "inputs": [
        {
          "indexed": false,
          "internalType": "uint256",
          "name": "newRate",
          "type": "uint256"
        }
      ],
      "name": "BaseRateUpdated",
      "type": "event"
    },
    {
      "anonymous": false,
      "inputs": [
        {
          "indexed": false,
          "internalType": "uint256",
          "name": "newRatio",
          "type": "uint256"
        }
      ],
      "name": "LTVRatioUpdated",
      "type": "event"
    },
    {
      "anonymous": false,
      "inputs": [
        {
          "indexed": true,
          "internalType": "address",
          "name": "operator",
          "type": "address"
        },
        {
          "indexed": false,
          "internalType": "uint256",
          "name": "amount",
          "type": "uint256"
        },
        {
          "indexed": false,
          "internalType": "uint256",
          "name": "interestRate",
          "type": "uint256"
        },
        {
          "indexed": false,
          "internalType": "uint256",
          "name": "dueTime",
          "type": "uint256"
        }
      ],
      "name": "LoanCreated",
      "type": "event"
    },
    {
      "anonymous": false,
      "inputs": [
        {
          "indexed": true,
          "internalType": "address",
          "name": "operator",
          "type": "address"
        },
        {
          "indexed": false,
          "internalType": "uint256",
          "name": "amount",
          "type": "uint256"
        },
        {
          "indexed": false,
          "internalType": "uint256",
          "name": "interest",
          "type": "uint256"
        }
      ],
      "name": "LoanRepaid",
      "type": "event"
    },
    {
      "anonymous": false,
      "inputs": [
        {
          "indexed": true,
          "internalType": "address",
          "name": "operator",
          "type": "address"
        },
        {
          "indexed": false,
          "internalType": "uint256",
          "name": "amount",
          "type": "uint256"
        }
      ],
      "name": "LoanSlashed",
      "type": "event"
    },
    {
      "anonymous": false,
      "inputs": [
        {
          "indexed": true,
          "internalType": "address",
          "name": "previousOwner",
          "type": "address"
        },
        {
          "indexed": true,
          "internalType": "address",
          "name": "newOwner",
          "type": "address"
        }
      ],
      "name": "OwnershipTransferred",
      "type": "event"
    },
    {
      "inputs": [],
      "name": "CUSDToken",
      "outputs": [
        {
          "internalType": "contract CUSD",
          "name": "",
          "type": "address"
        }
      ],
      "stateMutability": "view",
      "type": "function"
    },
    {
      "inputs": [],
      "name": "baseInterestRate",
      "outputs": [
        {
          "internalType": "uint256",
          "name": "",
          "type": "uint256"
        }
      ],
      "stateMutability": "view",
      "type": "function"
    },
    {
      "inputs": [],
      "name": "calculateRepaymentAmount",
      "outputs": [
        {
          "internalType": "uint256",
          "name": "",
          "type": "uint256"
        }
      ],
      "stateMutability": "view",
      "type": "function"
    },
    {
      "inputs": [
        {
          "internalType": "uint256",
          "name": "amount",
          "type": "uint256"
        }
      ],
      "name": "createLoan",
      "outputs": [],
      "stateMutability": "nonpayable",
      "type": "function"
    },
    {
      "inputs": [],
      "name": "eigen",
      "outputs": [
        {
          "internalType": "contract Eigen",
          "name": "",
          "type": "address"
        }
      ],
      "stateMutability": "view",
      "type": "function"
    },
    {
      "inputs": [],
      "name": "getLoanDetails",
      "outputs": [
        {
          "internalType": "uint256",
          "name": "amount",
          "type": "uint256"
        },
        {
          "internalType": "uint256",
          "name": "interestRate",
          "type": "uint256"
        },
        {
          "internalType": "uint256",
          "name": "startTime",
          "type": "uint256"
        },
        {
          "internalType": "uint256",
          "name": "dueTime",
          "type": "uint256"
        },
        {
          "internalType": "bool",
          "name": "isRepaid",
          "type": "bool"
        },
        {
          "internalType": "uint256",
          "name": "collateralAmount",
          "type": "uint256"
        },
        {
          "internalType": "uint256",
          "name": "loanedUSDCAmount",
          "type": "uint256"
        },
        {
          "internalType": "bool",
          "name": "isSlashed",
          "type": "bool"
        }
      ],
      "stateMutability": "view",
      "type": "function"
    },
    {
      "inputs": [],
      "name": "loan",
      "outputs": [
        {
          "internalType": "uint256",
          "name": "amount",
          "type": "uint256"
        },
        {
          "internalType": "uint256",
          "name": "interestRate",
          "type": "uint256"
        },
        {
          "internalType": "uint256",
          "name": "startTime",
          "type": "uint256"
        },
        {
          "internalType": "uint256",
          "name": "dueTime",
          "type": "uint256"
        },
        {
          "internalType": "bool",
          "name": "isRepaid",
          "type": "bool"
        },
        {
          "internalType": "uint256",
          "name": "collateralAmount",
          "type": "uint256"
        },
        {
          "internalType": "uint256",
          "name": "loanedUSDCAmount",
          "type": "uint256"
        },
        {
          "internalType": "bool",
          "name": "isSlashed",
          "type": "bool"
        }
      ],
      "stateMutability": "view",
      "type": "function"
    },
    {
      "inputs": [],
      "name": "loanDuration",
      "outputs": [
        {
          "internalType": "uint256",
          "name": "",
          "type": "uint256"
        }
      ],
      "stateMutability": "view",
      "type": "function"
    },
    {
      "inputs": [],
      "name": "ltvRatio",
      "outputs": [
        {
          "internalType": "uint256",
          "name": "",
          "type": "uint256"
        }
      ],
      "stateMutability": "view",
      "type": "function"
    },
    {
      "inputs": [],
      "name": "operator",
      "outputs": [
        {
          "internalType": "contract IOperator",
          "name": "",
          "type": "address"
        }
      ],
      "stateMutability": "view",
      "type": "function"
    },
    {
      "inputs": [],
      "name": "owner",
      "outputs": [
        {
          "internalType": "address",
          "name": "",
          "type": "address"
        }
      ],
      "stateMutability": "view",
      "type": "function"
    },
    {
      "inputs": [],
      "name": "renounceOwnership",
      "outputs": [],
      "stateMutability": "nonpayable",
      "type": "function"
    },
    {
      "inputs": [],
      "name": "repayLoan",
      "outputs": [],
      "stateMutability": "nonpayable",
      "type": "function"
    },
    {
      "inputs": [],
      "name": "sCUSDToken",
      "outputs": [
        {
          "internalType": "contract sCUSD",
          "name": "",
          "type": "address"
        }
      ],
      "stateMutability": "view",
      "type": "function"
    },
    {
      "inputs": [
        {
          "internalType": "address",
          "name": "_CUSDToken",
          "type": "address"
        }
      ],
      "name": "setCUSDToken",
      "outputs": [],
      "stateMutability": "nonpayable",
      "type": "function"
    },
    {
      "inputs": [],
      "name": "slashLoan",
      "outputs": [
        {
          "internalType": "bool",
          "name": "",
          "type": "bool"
        }
      ],
      "stateMutability": "nonpayable",
      "type": "function"
    },
    {
      "inputs": [
        {
          "internalType": "address",
          "name": "newOwner",
          "type": "address"
        }
      ],
      "name": "transferOwnership",
      "outputs": [],
      "stateMutability": "nonpayable",
      "type": "function"
    },
    {
      "inputs": [
        {
          "internalType": "uint256",
          "name": "newRate",
          "type": "uint256"
        }
      ],
      "name": "updateBaseRate",
      "outputs": [],
      "stateMutability": "nonpayable",
      "type": "function"
    },
    {
      "inputs": [
        {
          "internalType": "uint256",
          "name": "newRatio",
          "type": "uint256"
        }
      ],
      "name": "updateLTVRatio",
      "outputs": [],
      "stateMutability": "nonpayable",
      "type": "function"
    }
  ],
  "bytecode": "0x60806040526103e860055560326006556201518060075534801561002257600080fd5b5060405161218338038061218383398181016040528101906100449190610406565b33600073ffffffffffffffffffffffffffffffffffffffff168173ffffffffffffffffffffffffffffffffffffffff16036100b75760006040517f1e4fbdf70000000000000000000000000000000000000000000000000000000081526004016100ae9190610468565b60405180910390fd5b6100c6816102df60201b60201c565b50600073ffffffffffffffffffffffffffffffffffffffff168373ffffffffffffffffffffffffffffffffffffffff1603610136576040517f08c379a000000000000000000000000000000000000000000000000000000000815260040161012d906104e0565b60405180910390fd5b600073ffffffffffffffffffffffffffffffffffffffff168273ffffffffffffffffffffffffffffffffffffffff16036101a5576040517f08c379a000000000000000000000000000000000000000000000000000000000815260040161019c9061054c565b60405180910390fd5b600073ffffffffffffffffffffffffffffffffffffffff168173ffffffffffffffffffffffffffffffffffffffff1603610214576040517f08c379a000000000000000000000000000000000000000000000000000000000815260040161020b906105b8565b60405180910390fd5b82600160006101000a81548173ffffffffffffffffffffffffffffffffffffffff021916908373ffffffffffffffffffffffffffffffffffffffff16021790555081600260006101000a81548173ffffffffffffffffffffffffffffffffffffffff021916908373ffffffffffffffffffffffffffffffffffffffff16021790555080600360006101000a81548173ffffffffffffffffffffffffffffffffffffffff021916908373ffffffffffffffffffffffffffffffffffffffff1602179055505050506105d8565b60008060009054906101000a900473ffffffffffffffffffffffffffffffffffffffff169050816000806101000a81548173ffffffffffffffffffffffffffffffffffffffff021916908373ffffffffffffffffffffffffffffffffffffffff1602179055508173ffffffffffffffffffffffffffffffffffffffff168173ffffffffffffffffffffffffffffffffffffffff167f8be0079c531659141344cd1fd0a4f28419497f9722a3daafe3b4186f6b6457e060405160405180910390a35050565b600080fd5b600073ffffffffffffffffffffffffffffffffffffffff82169050919050565b60006103d3826103a8565b9050919050565b6103e3816103c8565b81146103ee57600080fd5b50565b600081519050610400816103da565b92915050565b60008060006060848603121561041f5761041e6103a3565b5b600061042d868287016103f1565b935050602061043e868287016103f1565b925050604061044f868287016103f1565b9150509250925092565b610462816103c8565b82525050565b600060208201905061047d6000830184610459565b92915050565b600082825260208201905092915050565b7f496e76616c696420656967656e20616464726573730000000000000000000000600082015250565b60006104ca601583610483565b91506104d582610494565b602082019050919050565b600060208201905081810360008301526104f9816104bd565b9050919050565b7f496e76616c696420734355534420746f6b656e20616464726573730000000000600082015250565b6000610536601b83610483565b915061054182610500565b602082019050919050565b6000602082019050818103600083015261056581610529565b9050919050565b7f496e76616c6964206f70657261746f7220616464726573730000000000000000600082015250565b60006105a2601883610483565b91506105ad8261056c565b602082019050919050565b600060208201905081810360008301526105d181610595565b9050919050565b611b9c806105e76000396000f3fe608060405234801561001057600080fd5b50600436106101215760003560e01c80638fbcd32f116100ad578063d285b7b411610071578063d285b7b4146102b7578063f2fde38b146102dc578063f5521bf1146102f8578063f966ade714610316578063fc1fd1341461032057610121565b80638fbcd32f1461021e5780639a4e8ecf1461023c578063a3b9e39d14610258578063afd927621461027d578063b36f8faf1461029b57610121565b8063677c0c67116100f4578063677c0c671461019c578063715018a6146101ba578063772c0ff9146101c45780637de614f0146101e25780638da5cb5b1461020057610121565b80631efc146914610126578063330283aa14610144578063570ca73514610160578063606af3c31461017e575b600080fd5b61012e61033c565b60405161013b91906111d8565b60405180910390f35b61015e6004803603810190610159919061122e565b610362565b005b6101686103ab565b604051610175919061127c565b60405180910390f35b6101866103d1565b60405161019391906112b8565b60405180910390f35b6101a46103f7565b6040516101b191906112f4565b60405180910390f35b6101c261041d565b005b6101cc610431565b6040516101d9919061132a565b60405180910390f35b6101ea610612565b6040516101f79190611354565b60405180910390f35b610208610650565b6040516102159190611390565b60405180910390f35b610226610679565b6040516102339190611354565b60405180910390f35b6102566004803603810190610251919061122e565b61067f565b005b610260610a58565b6040516102749897969594939291906113ab565b60405180910390f35b610285610ac8565b6040516102929190611354565b60405180910390f35b6102b560048036038101906102b0919061122e565b610ace565b005b6102bf610b5b565b6040516102d39897969594939291906113ab565b60405180910390f35b6102f660048036038101906102f19190611455565b610bab565b005b610300610c31565b60405161030d9190611354565b60405180910390f35b61031e610c37565b005b61033a60048036038101906103359190611455565b610f4b565b005b600460009054906101000a900473ffffffffffffffffffffffffffffffffffffffff1681565b61036a611006565b806005819055507fc454ee9b76c52f782a256af821b857ca6e125d1e3333bcede402fec2bed9600c816040516103a09190611354565b60405180910390a150565b600360009054906101000a900473ffffffffffffffffffffffffffffffffffffffff1681565b600260009054906101000a900473ffffffffffffffffffffffffffffffffffffffff1681565b600160009054906101000a900473ffffffffffffffffffffffffffffffffffffffff1681565b610425611006565b61042f600061108d565b565b6000806008600001541180156104575750600860040160009054906101000a900460ff16155b610496576040517f08c379a000000000000000000000000000000000000000000000000000000000815260040161048d906114df565b60405180910390fd5b600860070160009054906101000a900460ff16156104e9576040517f08c379a00000000000000000000000000000000000000000000000000000000081526004016104e09061154b565b60405180910390fd5b60006008600001549050600160009054906101000a900473ffffffffffffffffffffffffffffffffffffffff1673ffffffffffffffffffffffffffffffffffffffff16632da25de36040518163ffffffff1660e01b8152600401600060405180830381600087803b15801561055d57600080fd5b505af1158015610571573d6000803e3d6000fd5b505050506001600860040160006101000a81548160ff0219169083151502179055506001600860070160006101000a81548160ff02191690831515021790555060006008600001819055503373ffffffffffffffffffffffffffffffffffffffff167fa1f8d27ed8298107a9eb5cecd81c05419b1bde3c035a21236d9c9c82015dbcfa826040516106029190611354565b60405180910390a2600191505090565b60008060086000015414806106365750600860040160009054906101000a900460ff165b15610644576000905061064d565b60086000015490505b90565b60008060009054906101000a900473ffffffffffffffffffffffffffffffffffffffff16905090565b60065481565b600081116106c2576040517f08c379a00000000000000000000000000000000000000000000000000000000081526004016106b9906115dd565b60405180910390fd5b600060086000015414806106e55750600860040160009054906101000a900460ff165b610724576040517f08c379a000000000000000000000000000000000000000000000000000000000815260040161071b90611649565b60405180910390fd5b6000600160009054906101000a900473ffffffffffffffffffffffffffffffffffffffff1673ffffffffffffffffffffffffffffffffffffffff1663f29768716040518163ffffffff1660e01b8152600401602060405180830381865afa158015610793573d6000803e3d6000fd5b505050506040513d601f19601f820116820180604052508101906107b7919061167e565b905060006064600654836107cb91906116da565b6107d5919061174b565b90508083111561081a576040517f08c379a0000000000000000000000000000000000000000000000000000000008152600401610811906117ee565b60405180910390fd5b604051806101000160405280848152602001600554815260200142815260200160075442610848919061180e565b8152602001600015158152602001838152602001600081526020016000151581525060086000820151816000015560208201518160010155604082015181600201556060820151816003015560808201518160040160006101000a81548160ff02191690831515021790555060a0820151816005015560c0820151816006015560e08201518160070160006101000a81548160ff0219169083151502179055509050506000600260009054906101000a900473ffffffffffffffffffffffffffffffffffffffff1673ffffffffffffffffffffffffffffffffffffffff16630f9facbe85600360009054906101000a900473ffffffffffffffffffffffffffffffffffffffff166040518363ffffffff1660e01b815260040161096c929190611842565b6020604051808303816000875af115801561098b573d6000803e3d6000fd5b505050506040513d601f19601f820116820180604052508101906109af9190611897565b9050806109f1576040517f08c379a00000000000000000000000000000000000000000000000000000000081526004016109e890611910565b60405180910390fd5b3373ffffffffffffffffffffffffffffffffffffffff167f1804eb76dc9809be7ef188388aa1aeb765881fd848377be891234e5c584345fe8560055460075442610a3b919061180e565b604051610a4a93929190611930565b60405180910390a250505050565b600080600080600080600080600860000154600860010154600860020154600860030154600860040160009054906101000a900460ff16600860050154600860060154600860070160009054906101000a900460ff16975097509750975097509750975097509091929394959697565b60055481565b610ad6611006565b6050811115610b1a576040517f08c379a0000000000000000000000000000000000000000000000000000000008152600401610b11906119b3565b60405180910390fd5b806006819055507f38b6cc930563309bee808bf6909492708ec475960b01ffa9791b5ffca27c1f9881604051610b509190611354565b60405180910390a150565b60088060000154908060010154908060020154908060030154908060040160009054906101000a900460ff16908060050154908060060154908060070160009054906101000a900460ff16905088565b610bb3611006565b600073ffffffffffffffffffffffffffffffffffffffff168173ffffffffffffffffffffffffffffffffffffffff1603610c255760006040517f1e4fbdf7000000000000000000000000000000000000000000000000000000008152600401610c1c9190611390565b60405180910390fd5b610c2e8161108d565b50565b60075481565b6000600860000154118015610c5c5750600860040160009054906101000a900460ff16155b610c9b576040517f08c379a0000000000000000000000000000000000000000000000000000000008152600401610c9290611a1f565b60405180910390fd5b600060086000015490506000600860000154905080600460009054906101000a900473ffffffffffffffffffffffffffffffffffffffff1673ffffffffffffffffffffffffffffffffffffffff166370a08231600360009054906101000a900473ffffffffffffffffffffffffffffffffffffffff166040518263ffffffff1660e01b8152600401610d2d9190611390565b602060405180830381865afa158015610d4a573d6000803e3d6000fd5b505050506040513d601f19601f82011682018060405250810190610d6e919061167e565b1015610daf576040517f08c379a0000000000000000000000000000000000000000000000000000000008152600401610da690611ab1565b60405180910390fd5b6000600260009054906101000a900473ffffffffffffffffffffffffffffffffffffffff1673ffffffffffffffffffffffffffffffffffffffff1663dc57225b83600360009054906101000a900473ffffffffffffffffffffffffffffffffffffffff166040518363ffffffff1660e01b8152600401610e30929190611842565b6020604051808303816000875af1158015610e4f573d6000803e3d6000fd5b505050506040513d601f19601f82011682018060405250810190610e739190611897565b905080610eb5576040517f08c379a0000000000000000000000000000000000000000000000000000000008152600401610eac90611910565b60405180910390fd5b6001600860040160006101000a81548160ff0219169083151502179055506000600860070160006101000a81548160ff0219169083151502179055503373ffffffffffffffffffffffffffffffffffffffff167fc7ce0a35f17b490de2a317e7fecb2cae86b1abffb03800b2f49282352138269860086000015485604051610f3e929190611ad1565b60405180910390a2505050565b610f53611006565b600073ffffffffffffffffffffffffffffffffffffffff168173ffffffffffffffffffffffffffffffffffffffff1603610fc2576040517f08c379a0000000000000000000000000000000000000000000000000000000008152600401610fb990611b46565b60405180910390fd5b80600460006101000a81548173ffffffffffffffffffffffffffffffffffffffff021916908373ffffffffffffffffffffffffffffffffffffffff16021790555050565b61100e611151565b73ffffffffffffffffffffffffffffffffffffffff1661102c610650565b73ffffffffffffffffffffffffffffffffffffffff161461108b5761104f611151565b6040517f118cdaa70000000000000000000000000000000000000000000000000000000081526004016110829190611390565b60405180910390fd5b565b60008060009054906101000a900473ffffffffffffffffffffffffffffffffffffffff169050816000806101000a81548173ffffffffffffffffffffffffffffffffffffffff021916908373ffffffffffffffffffffffffffffffffffffffff1602179055508173ffffffffffffffffffffffffffffffffffffffff168173ffffffffffffffffffffffffffffffffffffffff167f8be0079c531659141344cd1fd0a4f28419497f9722a3daafe3b4186f6b6457e060405160405180910390a35050565b600033905090565b600073ffffffffffffffffffffffffffffffffffffffff82169050919050565b6000819050919050565b600061119e61119961119484611159565b611179565b611159565b9050919050565b60006111b082611183565b9050919050565b60006111c2826111a5565b9050919050565b6111d2816111b7565b82525050565b60006020820190506111ed60008301846111c9565b92915050565b600080fd5b6000819050919050565b61120b816111f8565b811461121657600080fd5b50565b60008135905061122881611202565b92915050565b600060208284031215611244576112436111f3565b5b600061125284828501611219565b91505092915050565b6000611266826111a5565b9050919050565b6112768161125b565b82525050565b6000602082019050611291600083018461126d565b92915050565b60006112a2826111a5565b9050919050565b6112b281611297565b82525050565b60006020820190506112cd60008301846112a9565b92915050565b60006112de826111a5565b9050919050565b6112ee816112d3565b82525050565b600060208201905061130960008301846112e5565b92915050565b60008115159050919050565b6113248161130f565b82525050565b600060208201905061133f600083018461131b565b92915050565b61134e816111f8565b82525050565b60006020820190506113696000830184611345565b92915050565b600061137a82611159565b9050919050565b61138a8161136f565b82525050565b60006020820190506113a56000830184611381565b92915050565b6000610100820190506113c1600083018b611345565b6113ce602083018a611345565b6113db6040830189611345565b6113e86060830188611345565b6113f5608083018761131b565b61140260a0830186611345565b61140f60c0830185611345565b61141c60e083018461131b565b9998505050505050505050565b6114328161136f565b811461143d57600080fd5b50565b60008135905061144f81611429565b92915050565b60006020828403121561146b5761146a6111f3565b5b600061147984828501611440565b91505092915050565b600082825260208201905092915050565b7f4e6f20616374697665206c6f616e20746f20736c617368000000000000000000600082015250565b60006114c9601783611482565b91506114d482611493565b602082019050919050565b600060208201905081810360008301526114f8816114bc565b9050919050565b7f4c6f616e20616c726561647920736c6173686564000000000000000000000000600082015250565b6000611535601483611482565b9150611540826114ff565b602082019050919050565b6000602082019050818103600083015261156481611528565b9050919050565b7f4c6f616e20616d6f756e74206d7573742062652067726561746572207468616e60008201527f207a65726f000000000000000000000000000000000000000000000000000000602082015250565b60006115c7602583611482565b91506115d28261156b565b604082019050919050565b600060208201905081810360008301526115f6816115ba565b9050919050565b7f4578697374696e67206c6f616e206e6f74207265706169640000000000000000600082015250565b6000611633601883611482565b915061163e826115fd565b602082019050919050565b6000602082019050818103600083015261166281611626565b9050919050565b60008151905061167881611202565b92915050565b600060208284031215611694576116936111f3565b5b60006116a284828501611669565b91505092915050565b7f4e487b7100000000000000000000000000000000000000000000000000000000600052601160045260246000fd5b60006116e5826111f8565b91506116f0836111f8565b92508282026116fe816111f8565b91508282048414831517611715576117146116ab565b5b5092915050565b7f4e487b7100000000000000000000000000000000000000000000000000000000600052601260045260246000fd5b6000611756826111f8565b9150611761836111f8565b9250826117715761177061171c565b5b828204905092915050565b7f4c6f616e20616d6f756e742065786365656473206d6178696d756d20616c6c6f60008201527f7765640000000000000000000000000000000000000000000000000000000000602082015250565b60006117d8602383611482565b91506117e38261177c565b604082019050919050565b60006020820190508181036000830152611807816117cb565b9050919050565b6000611819826111f8565b9150611824836111f8565b925082820190508082111561183c5761183b6116ab565b5b92915050565b60006040820190506118576000830185611345565b6118646020830184611381565b9392505050565b6118748161130f565b811461187f57600080fd5b50565b6000815190506118918161186b565b92915050565b6000602082840312156118ad576118ac6111f3565b5b60006118bb84828501611882565b91505092915050565b7f43555344207472616e73666572206661696c6564000000000000000000000000600082015250565b60006118fa601483611482565b9150611905826118c4565b602082019050919050565b60006020820190508181036000830152611929816118ed565b9050919050565b60006060820190506119456000830186611345565b6119526020830185611345565b61195f6040830184611345565b949350505050565b7f4c545620726174696f20746f6f20686967680000000000000000000000000000600082015250565b600061199d601283611482565b91506119a882611967565b602082019050919050565b600060208201905081810360008301526119cc81611990565b9050919050565b7f4e6f20616374697665206c6f616e20746f207265706179000000000000000000600082015250565b6000611a09601783611482565b9150611a14826119d3565b602082019050919050565b60006020820190508181036000830152611a38816119fc565b9050919050565b7f4f70657261746f7220646f6573206e6f74206861766520656e6f75676820435560008201527f534420746f6b656e730000000000000000000000000000000000000000000000602082015250565b6000611a9b602983611482565b9150611aa682611a3f565b604082019050919050565b60006020820190508181036000830152611aca81611a8e565b9050919050565b6000604082019050611ae66000830185611345565b611af36020830184611345565b9392505050565b7f496e76616c6964204355534420746f6b656e2061646472657373000000000000600082015250565b6000611b30601a83611482565b9150611b3b82611afa565b602082019050919050565b60006020820190508181036000830152611b5f81611b23565b905091905056fea264697066735822122076b34058d1312745a468bf378dc83ba46d7b06ec40ee3d1d1a4a66936ce6956464736f6c634300081c0033",
  "linkReferences": {},
  "deployedLinkReferences": {}
}