{
  "_format": "hh-sol-artifact-1",
  "contractName": "LoanManager",
  "sourceName": "contracts/LoanManager.sol",
  "abi": [
    {
      "inputs": [
        {
          "internalType": "address",
          "name": "_eigen",
          "type": "address"
        },
        {
          "internalType": "address",
          "name": "_stUSDCToken",
          "type": "address"
        },
        {
          "internalType": "address",
          "name": "_operator",
          "type": "address"
        }
      ],
      "stateMutability": "nonpayable",
      "type": "constructor"
    },
    {
      "inputs": [
        {
          "internalType": "address",
          "name": "owner",
          "type": "address"
        }
      ],
      "name": "OwnableInvalidOwner",
      "type": "error"
    },
    {
      "inputs": [
        {
          "internalType": "address",
          "name": "account",
          "type": "address"
        }
      ],
      "name": "OwnableUnauthorizedAccount",
      "type": "error"
    },
    {
      "anonymous": false,
      "inputs": [
        {
          "indexed": false,
          "internalType": "uint256",
          "name": "newRate",
          "type": "uint256"
        }
      ],
      "name": "BaseRateUpdated",
      "type": "event"
    },
    {
      "anonymous": false,
      "inputs": [
        {
          "indexed": false,
          "internalType": "uint256",
          "name": "newRatio",
          "type": "uint256"
        }
      ],
      "name": "LTVRatioUpdated",
      "type": "event"
    },
    {
      "anonymous": false,
      "inputs": [
        {
          "indexed": true,
          "internalType": "address",
          "name": "operator",
          "type": "address"
        },
        {
          "indexed": false,
          "internalType": "uint256",
          "name": "amount",
          "type": "uint256"
        },
        {
          "indexed": false,
          "internalType": "uint256",
          "name": "interestRate",
          "type": "uint256"
        },
        {
          "indexed": false,
          "internalType": "uint256",
          "name": "dueTime",
          "type": "uint256"
        }
      ],
      "name": "LoanCreated",
      "type": "event"
    },
    {
      "anonymous": false,
      "inputs": [
        {
          "indexed": true,
          "internalType": "address",
          "name": "operator",
          "type": "address"
        },
        {
          "indexed": false,
          "internalType": "uint256",
          "name": "amount",
          "type": "uint256"
        },
        {
          "indexed": false,
          "internalType": "uint256",
          "name": "interest",
          "type": "uint256"
        }
      ],
      "name": "LoanRepaid",
      "type": "event"
    },
    {
      "anonymous": false,
      "inputs": [
        {
          "indexed": true,
          "internalType": "address",
          "name": "operator",
          "type": "address"
        },
        {
          "indexed": false,
          "internalType": "uint256",
          "name": "amount",
          "type": "uint256"
        }
      ],
      "name": "LoanSlashed",
      "type": "event"
    },
    {
      "anonymous": false,
      "inputs": [
        {
          "indexed": true,
          "internalType": "address",
          "name": "previousOwner",
          "type": "address"
        },
        {
          "indexed": true,
          "internalType": "address",
          "name": "newOwner",
          "type": "address"
        }
      ],
      "name": "OwnershipTransferred",
      "type": "event"
    },
    {
      "inputs": [],
      "name": "baseInterestRate",
      "outputs": [
        {
          "internalType": "uint256",
          "name": "",
          "type": "uint256"
        }
      ],
      "stateMutability": "view",
      "type": "function"
    },
    {
      "inputs": [],
      "name": "calculateRepaymentAmount",
      "outputs": [
        {
          "internalType": "uint256",
          "name": "",
          "type": "uint256"
        }
      ],
      "stateMutability": "view",
      "type": "function"
    },
    {
      "inputs": [
        {
          "internalType": "uint256",
          "name": "amount",
          "type": "uint256"
        }
      ],
      "name": "createLoan",
      "outputs": [],
      "stateMutability": "nonpayable",
      "type": "function"
    },
    {
      "inputs": [],
      "name": "eigen",
      "outputs": [
        {
          "internalType": "contract Eigen",
          "name": "",
          "type": "address"
        }
      ],
      "stateMutability": "view",
      "type": "function"
    },
    {
      "inputs": [],
      "name": "getLoanDetails",
      "outputs": [
        {
          "internalType": "uint256",
          "name": "amount",
          "type": "uint256"
        },
        {
          "internalType": "uint256",
          "name": "interestRate",
          "type": "uint256"
        },
        {
          "internalType": "uint256",
          "name": "startTime",
          "type": "uint256"
        },
        {
          "internalType": "uint256",
          "name": "dueTime",
          "type": "uint256"
        },
        {
          "internalType": "bool",
          "name": "isRepaid",
          "type": "bool"
        },
        {
          "internalType": "uint256",
          "name": "collateralAmount",
          "type": "uint256"
        },
        {
          "internalType": "uint256",
          "name": "loanedUSDCAmount",
          "type": "uint256"
        },
        {
          "internalType": "bool",
          "name": "isSlashed",
          "type": "bool"
        }
      ],
      "stateMutability": "view",
      "type": "function"
    },
    {
      "inputs": [],
      "name": "loan",
      "outputs": [
        {
          "internalType": "uint256",
          "name": "amount",
          "type": "uint256"
        },
        {
          "internalType": "uint256",
          "name": "interestRate",
          "type": "uint256"
        },
        {
          "internalType": "uint256",
          "name": "startTime",
          "type": "uint256"
        },
        {
          "internalType": "uint256",
          "name": "dueTime",
          "type": "uint256"
        },
        {
          "internalType": "bool",
          "name": "isRepaid",
          "type": "bool"
        },
        {
          "internalType": "uint256",
          "name": "collateralAmount",
          "type": "uint256"
        },
        {
          "internalType": "uint256",
          "name": "loanedUSDCAmount",
          "type": "uint256"
        },
        {
          "internalType": "bool",
          "name": "isSlashed",
          "type": "bool"
        }
      ],
      "stateMutability": "view",
      "type": "function"
    },
    {
      "inputs": [],
      "name": "loanDuration",
      "outputs": [
        {
          "internalType": "uint256",
          "name": "",
          "type": "uint256"
        }
      ],
      "stateMutability": "view",
      "type": "function"
    },
    {
      "inputs": [],
      "name": "ltvRatio",
      "outputs": [
        {
          "internalType": "uint256",
          "name": "",
          "type": "uint256"
        }
      ],
      "stateMutability": "view",
      "type": "function"
    },
    {
      "inputs": [],
      "name": "operator",
      "outputs": [
        {
          "internalType": "contract IOperator",
          "name": "",
          "type": "address"
        }
      ],
      "stateMutability": "view",
      "type": "function"
    },
    {
      "inputs": [],
      "name": "owner",
      "outputs": [
        {
          "internalType": "address",
          "name": "",
          "type": "address"
        }
      ],
      "stateMutability": "view",
      "type": "function"
    },
    {
      "inputs": [],
      "name": "renounceOwnership",
      "outputs": [],
      "stateMutability": "nonpayable",
      "type": "function"
    },
    {
      "inputs": [],
      "name": "repayLoan",
      "outputs": [],
      "stateMutability": "nonpayable",
      "type": "function"
    },
    {
      "inputs": [
        {
          "internalType": "address",
          "name": "_wUSDCToken",
          "type": "address"
        }
      ],
      "name": "setwUSDCToken",
      "outputs": [],
      "stateMutability": "nonpayable",
      "type": "function"
    },
    {
      "inputs": [],
      "name": "slashLoan",
      "outputs": [
        {
          "internalType": "bool",
          "name": "",
          "type": "bool"
        }
      ],
      "stateMutability": "nonpayable",
      "type": "function"
    },
    {
      "inputs": [],
      "name": "stUSDCToken",
      "outputs": [
        {
          "internalType": "contract stUSDC",
          "name": "",
          "type": "address"
        }
      ],
      "stateMutability": "view",
      "type": "function"
    },
    {
      "inputs": [
        {
          "internalType": "address",
          "name": "newOwner",
          "type": "address"
        }
      ],
      "name": "transferOwnership",
      "outputs": [],
      "stateMutability": "nonpayable",
      "type": "function"
    },
    {
      "inputs": [
        {
          "internalType": "uint256",
          "name": "newRate",
          "type": "uint256"
        }
      ],
      "name": "updateBaseRate",
      "outputs": [],
      "stateMutability": "nonpayable",
      "type": "function"
    },
    {
      "inputs": [
        {
          "internalType": "uint256",
          "name": "newRatio",
          "type": "uint256"
        }
      ],
      "name": "updateLTVRatio",
      "outputs": [],
      "stateMutability": "nonpayable",
      "type": "function"
    },
    {
      "inputs": [],
      "name": "wUSDCToken",
      "outputs": [
        {
          "internalType": "contract wUSDC",
          "name": "",
          "type": "address"
        }
      ],
      "stateMutability": "view",
      "type": "function"
    }
  ],
  "bytecode": "0x60806040526103e860055560326006556201518060075534801561002257600080fd5b5060405161230c38038061230c83398181016040528101906100449190610406565b33600073ffffffffffffffffffffffffffffffffffffffff168173ffffffffffffffffffffffffffffffffffffffff16036100b75760006040517f1e4fbdf70000000000000000000000000000000000000000000000000000000081526004016100ae9190610468565b60405180910390fd5b6100c6816102df60201b60201c565b50600073ffffffffffffffffffffffffffffffffffffffff168373ffffffffffffffffffffffffffffffffffffffff1603610136576040517f08c379a000000000000000000000000000000000000000000000000000000000815260040161012d906104e0565b60405180910390fd5b600073ffffffffffffffffffffffffffffffffffffffff168273ffffffffffffffffffffffffffffffffffffffff16036101a5576040517f08c379a000000000000000000000000000000000000000000000000000000000815260040161019c9061054c565b60405180910390fd5b600073ffffffffffffffffffffffffffffffffffffffff168173ffffffffffffffffffffffffffffffffffffffff1603610214576040517f08c379a000000000000000000000000000000000000000000000000000000000815260040161020b906105b8565b60405180910390fd5b82600160006101000a81548173ffffffffffffffffffffffffffffffffffffffff021916908373ffffffffffffffffffffffffffffffffffffffff16021790555081600260006101000a81548173ffffffffffffffffffffffffffffffffffffffff021916908373ffffffffffffffffffffffffffffffffffffffff16021790555080600360006101000a81548173ffffffffffffffffffffffffffffffffffffffff021916908373ffffffffffffffffffffffffffffffffffffffff1602179055505050506105d8565b60008060009054906101000a900473ffffffffffffffffffffffffffffffffffffffff169050816000806101000a81548173ffffffffffffffffffffffffffffffffffffffff021916908373ffffffffffffffffffffffffffffffffffffffff1602179055508173ffffffffffffffffffffffffffffffffffffffff168173ffffffffffffffffffffffffffffffffffffffff167f8be0079c531659141344cd1fd0a4f28419497f9722a3daafe3b4186f6b6457e060405160405180910390a35050565b600080fd5b600073ffffffffffffffffffffffffffffffffffffffff82169050919050565b60006103d3826103a8565b9050919050565b6103e3816103c8565b81146103ee57600080fd5b50565b600081519050610400816103da565b92915050565b60008060006060848603121561041f5761041e6103a3565b5b600061042d868287016103f1565b935050602061043e868287016103f1565b925050604061044f868287016103f1565b9150509250925092565b610462816103c8565b82525050565b600060208201905061047d6000830184610459565b92915050565b600082825260208201905092915050565b7f496e76616c696420656967656e20616464726573730000000000000000000000600082015250565b60006104ca601583610483565b91506104d582610494565b602082019050919050565b600060208201905081810360008301526104f9816104bd565b9050919050565b7f496e76616c69642073745553444320746f6b656e206164647265737300000000600082015250565b6000610536601c83610483565b915061054182610500565b602082019050919050565b6000602082019050818103600083015261056581610529565b9050919050565b7f496e76616c6964206f70657261746f7220616464726573730000000000000000600082015250565b60006105a2601883610483565b91506105ad8261056c565b602082019050919050565b600060208201905081810360008301526105d181610595565b9050919050565b611d25806105e76000396000f3fe608060405234801561001057600080fd5b50600436106101215760003560e01c80638fbcd32f116100ad578063b36f8faf11610071578063b36f8faf146102b7578063d285b7b4146102d3578063f2fde38b146102f8578063f5521bf114610314578063f966ade71461033257610121565b80638fbcd32f1461021c5780639a4e8ecf1461023a578063a3b9e39d14610256578063afb363f31461027b578063afd927621461029957610121565b8063677c0c67116100f4578063677c0c671461019a578063715018a6146101b8578063772c0ff9146101c25780637de614f0146101e05780638da5cb5b146101fe57610121565b806310112f10146101265780632e790f6214610142578063330283aa14610160578063570ca7351461017c575b600080fd5b610140600480360381019061013b91906112d9565b61033c565b005b61014a6103f7565b6040516101579190611365565b60405180910390f35b61017a600480360381019061017591906113b6565b61041d565b005b610184610466565b6040516101919190611404565b60405180910390f35b6101a261048c565b6040516101af9190611440565b60405180910390f35b6101c06104b2565b005b6101ca6104c6565b6040516101d79190611476565b60405180910390f35b6101e86106a7565b6040516101f591906114a0565b60405180910390f35b6102066106f1565b60405161021391906114ca565b60405180910390f35b61022461071a565b60405161023191906114a0565b60405180910390f35b610254600480360381019061024f91906113b6565b610720565b005b61025e610af9565b6040516102729897969594939291906114e5565b60405180910390f35b610283610b69565b6040516102909190611584565b60405180910390f35b6102a1610b8f565b6040516102ae91906114a0565b60405180910390f35b6102d160048036038101906102cc91906113b6565b610b95565b005b6102db610c22565b6040516102ef9897969594939291906114e5565b60405180910390f35b610312600480360381019061030d91906112d9565b610c72565b005b61031c610cf8565b60405161032991906114a0565b60405180910390f35b61033a610cfe565b005b610344611123565b600073ffffffffffffffffffffffffffffffffffffffff168173ffffffffffffffffffffffffffffffffffffffff16036103b3576040517f08c379a00000000000000000000000000000000000000000000000000000000081526004016103aa906115fc565b60405180910390fd5b80600460006101000a81548173ffffffffffffffffffffffffffffffffffffffff021916908373ffffffffffffffffffffffffffffffffffffffff16021790555050565b600460009054906101000a900473ffffffffffffffffffffffffffffffffffffffff1681565b610425611123565b806005819055507fc454ee9b76c52f782a256af821b857ca6e125d1e3333bcede402fec2bed9600c8160405161045b91906114a0565b60405180910390a150565b600360009054906101000a900473ffffffffffffffffffffffffffffffffffffffff1681565b600160009054906101000a900473ffffffffffffffffffffffffffffffffffffffff1681565b6104ba611123565b6104c460006111aa565b565b6000806008600001541180156104ec5750600860040160009054906101000a900460ff16155b61052b576040517f08c379a000000000000000000000000000000000000000000000000000000000815260040161052290611668565b60405180910390fd5b600860070160009054906101000a900460ff161561057e576040517f08c379a0000000000000000000000000000000000000000000000000000000008152600401610575906116d4565b60405180910390fd5b60006008600001549050600160009054906101000a900473ffffffffffffffffffffffffffffffffffffffff1673ffffffffffffffffffffffffffffffffffffffff16632da25de36040518163ffffffff1660e01b8152600401600060405180830381600087803b1580156105f257600080fd5b505af1158015610606573d6000803e3d6000fd5b505050506001600860040160006101000a81548160ff0219169083151502179055506001600860070160006101000a81548160ff02191690831515021790555060006008600001819055503373ffffffffffffffffffffffffffffffffffffffff167fa1f8d27ed8298107a9eb5cecd81c05419b1bde3c035a21236d9c9c82015dbcfa8260405161069791906114a0565b60405180910390a2600191505090565b60008060086000015414806106cb5750600860040160009054906101000a900460ff165b156106d957600090506106ee565b60026008600001546106eb9190611723565b90505b90565b60008060009054906101000a900473ffffffffffffffffffffffffffffffffffffffff16905090565b60065481565b60008111610763576040517f08c379a000000000000000000000000000000000000000000000000000000000815260040161075a906117d7565b60405180910390fd5b600060086000015414806107865750600860040160009054906101000a900460ff165b6107c5576040517f08c379a00000000000000000000000000000000000000000000000000000000081526004016107bc90611843565b60405180910390fd5b6000600160009054906101000a900473ffffffffffffffffffffffffffffffffffffffff1673ffffffffffffffffffffffffffffffffffffffff1663f29768716040518163ffffffff1660e01b8152600401602060405180830381865afa158015610834573d6000803e3d6000fd5b505050506040513d601f19601f820116820180604052508101906108589190611878565b9050600060646006548361086c9190611723565b61087691906118d4565b9050808311156108bb576040517f08c379a00000000000000000000000000000000000000000000000000000000081526004016108b290611977565b60405180910390fd5b6040518061010001604052808481526020016005548152602001428152602001600754426108e99190611997565b8152602001600015158152602001838152602001600081526020016000151581525060086000820151816000015560208201518160010155604082015181600201556060820151816003015560808201518160040160006101000a81548160ff02191690831515021790555060a0820151816005015560c0820151816006015560e08201518160070160006101000a81548160ff0219169083151502179055509050506000600260009054906101000a900473ffffffffffffffffffffffffffffffffffffffff1673ffffffffffffffffffffffffffffffffffffffff16630f9facbe85600360009054906101000a900473ffffffffffffffffffffffffffffffffffffffff166040518363ffffffff1660e01b8152600401610a0d9291906119cb565b6020604051808303816000875af1158015610a2c573d6000803e3d6000fd5b505050506040513d601f19601f82011682018060405250810190610a509190611a20565b905080610a92576040517f08c379a0000000000000000000000000000000000000000000000000000000008152600401610a8990611a99565b60405180910390fd5b3373ffffffffffffffffffffffffffffffffffffffff167f1804eb76dc9809be7ef188388aa1aeb765881fd848377be891234e5c584345fe8560055460075442610adc9190611997565b604051610aeb93929190611ab9565b60405180910390a250505050565b600080600080600080600080600860000154600860010154600860020154600860030154600860040160009054906101000a900460ff16600860050154600860060154600860070160009054906101000a900460ff16975097509750975097509750975097509091929394959697565b600260009054906101000a900473ffffffffffffffffffffffffffffffffffffffff1681565b60055481565b610b9d611123565b6050811115610be1576040517f08c379a0000000000000000000000000000000000000000000000000000000008152600401610bd890611b3c565b60405180910390fd5b806006819055507f38b6cc930563309bee808bf6909492708ec475960b01ffa9791b5ffca27c1f9881604051610c1791906114a0565b60405180910390a150565b60088060000154908060010154908060020154908060030154908060040160009054906101000a900460ff16908060050154908060060154908060070160009054906101000a900460ff16905088565b610c7a611123565b600073ffffffffffffffffffffffffffffffffffffffff168173ffffffffffffffffffffffffffffffffffffffff1603610cec5760006040517f1e4fbdf7000000000000000000000000000000000000000000000000000000008152600401610ce391906114ca565b60405180910390fd5b610cf5816111aa565b50565b60075481565b6000600860000154118015610d235750600860040160009054906101000a900460ff16155b610d62576040517f08c379a0000000000000000000000000000000000000000000000000000000008152600401610d5990611ba8565b60405180910390fd5b60006008600001549050600081600860000154610d7f9190611997565b905080600460009054906101000a900473ffffffffffffffffffffffffffffffffffffffff1673ffffffffffffffffffffffffffffffffffffffff166370a08231600360009054906101000a900473ffffffffffffffffffffffffffffffffffffffff166040518263ffffffff1660e01b8152600401610dff91906114ca565b602060405180830381865afa158015610e1c573d6000803e3d6000fd5b505050506040513d601f19601f82011682018060405250810190610e409190611878565b1015610e81576040517f08c379a0000000000000000000000000000000000000000000000000000000008152600401610e7890611c3a565b60405180910390fd5b6000600460009054906101000a900473ffffffffffffffffffffffffffffffffffffffff1673ffffffffffffffffffffffffffffffffffffffff166370a08231600360009054906101000a900473ffffffffffffffffffffffffffffffffffffffff166040518263ffffffff1660e01b8152600401610f0091906114ca565b602060405180830381865afa158015610f1d573d6000803e3d6000fd5b505050506040513d601f19601f82011682018060405250810190610f419190611878565b905081811015610f86576040517f08c379a0000000000000000000000000000000000000000000000000000000008152600401610f7d90611ca6565b60405180910390fd5b6000600260009054906101000a900473ffffffffffffffffffffffffffffffffffffffff1673ffffffffffffffffffffffffffffffffffffffff1663dc57225b84600360009054906101000a900473ffffffffffffffffffffffffffffffffffffffff166040518363ffffffff1660e01b81526004016110079291906119cb565b6020604051808303816000875af1158015611026573d6000803e3d6000fd5b505050506040513d601f19601f8201168201806040525081019061104a9190611a20565b90508061108c576040517f08c379a000000000000000000000000000000000000000000000000000000000815260040161108390611a99565b60405180910390fd5b6001600860040160006101000a81548160ff0219169083151502179055506000600860070160006101000a81548160ff0219169083151502179055503373ffffffffffffffffffffffffffffffffffffffff167fc7ce0a35f17b490de2a317e7fecb2cae86b1abffb03800b2f49282352138269860086000015486604051611115929190611cc6565b60405180910390a250505050565b61112b61126e565b73ffffffffffffffffffffffffffffffffffffffff166111496106f1565b73ffffffffffffffffffffffffffffffffffffffff16146111a85761116c61126e565b6040517f118cdaa700000000000000000000000000000000000000000000000000000000815260040161119f91906114ca565b60405180910390fd5b565b60008060009054906101000a900473ffffffffffffffffffffffffffffffffffffffff169050816000806101000a81548173ffffffffffffffffffffffffffffffffffffffff021916908373ffffffffffffffffffffffffffffffffffffffff1602179055508173ffffffffffffffffffffffffffffffffffffffff168173ffffffffffffffffffffffffffffffffffffffff167f8be0079c531659141344cd1fd0a4f28419497f9722a3daafe3b4186f6b6457e060405160405180910390a35050565b600033905090565b600080fd5b600073ffffffffffffffffffffffffffffffffffffffff82169050919050565b60006112a68261127b565b9050919050565b6112b68161129b565b81146112c157600080fd5b50565b6000813590506112d3816112ad565b92915050565b6000602082840312156112ef576112ee611276565b5b60006112fd848285016112c4565b91505092915050565b6000819050919050565b600061132b6113266113218461127b565b611306565b61127b565b9050919050565b600061133d82611310565b9050919050565b600061134f82611332565b9050919050565b61135f81611344565b82525050565b600060208201905061137a6000830184611356565b92915050565b6000819050919050565b61139381611380565b811461139e57600080fd5b50565b6000813590506113b08161138a565b92915050565b6000602082840312156113cc576113cb611276565b5b60006113da848285016113a1565b91505092915050565b60006113ee82611332565b9050919050565b6113fe816113e3565b82525050565b600060208201905061141960008301846113f5565b92915050565b600061142a82611332565b9050919050565b61143a8161141f565b82525050565b60006020820190506114556000830184611431565b92915050565b60008115159050919050565b6114708161145b565b82525050565b600060208201905061148b6000830184611467565b92915050565b61149a81611380565b82525050565b60006020820190506114b56000830184611491565b92915050565b6114c48161129b565b82525050565b60006020820190506114df60008301846114bb565b92915050565b6000610100820190506114fb600083018b611491565b611508602083018a611491565b6115156040830189611491565b6115226060830188611491565b61152f6080830187611467565b61153c60a0830186611491565b61154960c0830185611491565b61155660e0830184611467565b9998505050505050505050565b600061156e82611332565b9050919050565b61157e81611563565b82525050565b60006020820190506115996000830184611575565b92915050565b600082825260208201905092915050565b7f496e76616c696420775553444320746f6b656e20616464726573730000000000600082015250565b60006115e6601b8361159f565b91506115f1826115b0565b602082019050919050565b60006020820190508181036000830152611615816115d9565b9050919050565b7f4e6f20616374697665206c6f616e20746f20736c617368000000000000000000600082015250565b600061165260178361159f565b915061165d8261161c565b602082019050919050565b6000602082019050818103600083015261168181611645565b9050919050565b7f4c6f616e20616c726561647920736c6173686564000000000000000000000000600082015250565b60006116be60148361159f565b91506116c982611688565b602082019050919050565b600060208201905081810360008301526116ed816116b1565b9050919050565b7f4e487b7100000000000000000000000000000000000000000000000000000000600052601160045260246000fd5b600061172e82611380565b915061173983611380565b925082820261174781611380565b9150828204841483151761175e5761175d6116f4565b5b5092915050565b7f4c6f616e20616d6f756e74206d7573742062652067726561746572207468616e60008201527f207a65726f000000000000000000000000000000000000000000000000000000602082015250565b60006117c160258361159f565b91506117cc82611765565b604082019050919050565b600060208201905081810360008301526117f0816117b4565b9050919050565b7f4578697374696e67206c6f616e206e6f74207265706169640000000000000000600082015250565b600061182d60188361159f565b9150611838826117f7565b602082019050919050565b6000602082019050818103600083015261185c81611820565b9050919050565b6000815190506118728161138a565b92915050565b60006020828403121561188e5761188d611276565b5b600061189c84828501611863565b91505092915050565b7f4e487b7100000000000000000000000000000000000000000000000000000000600052601260045260246000fd5b60006118df82611380565b91506118ea83611380565b9250826118fa576118f96118a5565b5b828204905092915050565b7f4c6f616e20616d6f756e742065786365656473206d6178696d756d20616c6c6f60008201527f7765640000000000000000000000000000000000000000000000000000000000602082015250565b600061196160238361159f565b915061196c82611905565b604082019050919050565b6000602082019050818103600083015261199081611954565b9050919050565b60006119a282611380565b91506119ad83611380565b92508282019050808211156119c5576119c46116f4565b5b92915050565b60006040820190506119e06000830185611491565b6119ed60208301846114bb565b9392505050565b6119fd8161145b565b8114611a0857600080fd5b50565b600081519050611a1a816119f4565b92915050565b600060208284031215611a3657611a35611276565b5b6000611a4484828501611a0b565b91505092915050565b7f7755534443207472616e73666572206661696c65640000000000000000000000600082015250565b6000611a8360158361159f565b9150611a8e82611a4d565b602082019050919050565b60006020820190508181036000830152611ab281611a76565b9050919050565b6000606082019050611ace6000830186611491565b611adb6020830185611491565b611ae86040830184611491565b949350505050565b7f4c545620726174696f20746f6f20686967680000000000000000000000000000600082015250565b6000611b2660128361159f565b9150611b3182611af0565b602082019050919050565b60006020820190508181036000830152611b5581611b19565b9050919050565b7f4e6f20616374697665206c6f616e20746f207265706179000000000000000000600082015250565b6000611b9260178361159f565b9150611b9d82611b5c565b602082019050919050565b60006020820190508181036000830152611bc181611b85565b9050919050565b7f4f70657261746f7220646f6573206e6f74206861766520656e6f75676820775560008201527f53444320746f6b656e7300000000000000000000000000000000000000000000602082015250565b6000611c24602a8361159f565b9150611c2f82611bc8565b604082019050919050565b60006020820190508181036000830152611c5381611c17565b9050919050565b7f4f70657261746f722062616c616e636520696e73756666696369656e74000000600082015250565b6000611c90601d8361159f565b9150611c9b82611c5a565b602082019050919050565b60006020820190508181036000830152611cbf81611c83565b9050919050565b6000604082019050611cdb6000830185611491565b611ce86020830184611491565b939250505056fea264697066735822122063488d577ab12b6006a8f0e526d73a973a1a57e5e5c3c53e4db4b5d986e8b26264736f6c634300081c0033",
  "linkReferences": {},
  "deployedLinkReferences": {}
}