{
  "_format": "hh-sol-artifact-1",
  "contractName": "Eigen",
  "sourceName": "contracts/Eigen.sol",
  "abi": [
    {
      "inputs": [
        {
          "internalType": "address",
          "name": "_stCOREToken",
          "type": "address"
        },
        {
          "internalType": "address",
          "name": "_operator",
          "type": "address"
        }
      ],
      "stateMutability": "nonpayable",
      "type": "constructor"
    },
    {
      "inputs": [
        {
          "internalType": "address",
          "name": "owner",
          "type": "address"
        }
      ],
      "name": "OwnableInvalidOwner",
      "type": "error"
    },
    {
      "inputs": [
        {
          "internalType": "address",
          "name": "account",
          "type": "address"
        }
      ],
      "name": "OwnableUnauthorizedAccount",
      "type": "error"
    },
    {
      "anonymous": false,
      "inputs": [
        {
          "indexed": true,
          "internalType": "address",
          "name": "restaker",
          "type": "address"
        },
        {
          "indexed": false,
          "internalType": "uint256",
          "name": "amount",
          "type": "uint256"
        }
      ],
      "name": "DelegationAdded",
      "type": "event"
    },
    {
      "anonymous": false,
      "inputs": [
        {
          "indexed": true,
          "internalType": "address",
          "name": "restaker",
          "type": "address"
        },
        {
          "indexed": false,
          "internalType": "uint256",
          "name": "amount",
          "type": "uint256"
        }
      ],
      "name": "DelegationRemoved",
      "type": "event"
    },
    {
      "anonymous": false,
      "inputs": [
        {
          "indexed": true,
          "internalType": "address",
          "name": "previousOwner",
          "type": "address"
        },
        {
          "indexed": true,
          "internalType": "address",
          "name": "newOwner",
          "type": "address"
        }
      ],
      "name": "OwnershipTransferred",
      "type": "event"
    },
    {
      "inputs": [
        {
          "internalType": "uint256",
          "name": "amount",
          "type": "uint256"
        }
      ],
      "name": "addDelegation",
      "outputs": [],
      "stateMutability": "nonpayable",
      "type": "function"
    },
    {
      "inputs": [
        {
          "internalType": "address",
          "name": "",
          "type": "address"
        }
      ],
      "name": "delegations",
      "outputs": [
        {
          "internalType": "uint256",
          "name": "",
          "type": "uint256"
        }
      ],
      "stateMutability": "view",
      "type": "function"
    },
    {
      "inputs": [
        {
          "internalType": "uint256",
          "name": "",
          "type": "uint256"
        }
      ],
      "name": "delegators",
      "outputs": [
        {
          "internalType": "address",
          "name": "",
          "type": "address"
        }
      ],
      "stateMutability": "view",
      "type": "function"
    },
    {
      "inputs": [
        {
          "internalType": "address",
          "name": "restaker",
          "type": "address"
        }
      ],
      "name": "getDelegatedAmount",
      "outputs": [
        {
          "internalType": "uint256",
          "name": "",
          "type": "uint256"
        }
      ],
      "stateMutability": "view",
      "type": "function"
    },
    {
      "inputs": [
        {
          "internalType": "address[]",
          "name": "restakerAddresses",
          "type": "address[]"
        }
      ],
      "name": "getOperatorDelegations",
      "outputs": [
        {
          "internalType": "address[]",
          "name": "restakers",
          "type": "address[]"
        },
        {
          "internalType": "uint256[]",
          "name": "amounts",
          "type": "uint256[]"
        }
      ],
      "stateMutability": "view",
      "type": "function"
    },
    {
      "inputs": [],
      "name": "getTotalDelegated",
      "outputs": [
        {
          "internalType": "uint256",
          "name": "",
          "type": "uint256"
        }
      ],
      "stateMutability": "view",
      "type": "function"
    },
    {
      "inputs": [
        {
          "internalType": "address",
          "name": "restaker",
          "type": "address"
        }
      ],
      "name": "getTotalDelegatedByRestaker",
      "outputs": [
        {
          "internalType": "uint256",
          "name": "",
          "type": "uint256"
        }
      ],
      "stateMutability": "view",
      "type": "function"
    },
    {
      "inputs": [
        {
          "internalType": "address",
          "name": "",
          "type": "address"
        }
      ],
      "name": "isDelegator",
      "outputs": [
        {
          "internalType": "bool",
          "name": "",
          "type": "bool"
        }
      ],
      "stateMutability": "view",
      "type": "function"
    },
    {
      "inputs": [],
      "name": "operator",
      "outputs": [
        {
          "internalType": "contract IOperator",
          "name": "",
          "type": "address"
        }
      ],
      "stateMutability": "view",
      "type": "function"
    },
    {
      "inputs": [],
      "name": "owner",
      "outputs": [
        {
          "internalType": "address",
          "name": "",
          "type": "address"
        }
      ],
      "stateMutability": "view",
      "type": "function"
    },
    {
      "inputs": [
        {
          "internalType": "uint256",
          "name": "amount",
          "type": "uint256"
        }
      ],
      "name": "removeDelegation",
      "outputs": [],
      "stateMutability": "nonpayable",
      "type": "function"
    },
    {
      "inputs": [],
      "name": "renounceOwnership",
      "outputs": [],
      "stateMutability": "nonpayable",
      "type": "function"
    },
    {
      "inputs": [],
      "name": "slash",
      "outputs": [],
      "stateMutability": "nonpayable",
      "type": "function"
    },
    {
      "inputs": [],
      "name": "stcoreToken",
      "outputs": [
        {
          "internalType": "contract stCORE",
          "name": "",
          "type": "address"
        }
      ],
      "stateMutability": "view",
      "type": "function"
    },
    {
      "inputs": [],
      "name": "totalDelegatedTokens",
      "outputs": [
        {
          "internalType": "uint256",
          "name": "",
          "type": "uint256"
        }
      ],
      "stateMutability": "view",
      "type": "function"
    },
    {
      "inputs": [
        {
          "internalType": "address",
          "name": "newOwner",
          "type": "address"
        }
      ],
      "name": "transferOwnership",
      "outputs": [],
      "stateMutability": "nonpayable",
      "type": "function"
    }
  ],
  "bytecode": "0x608060405234801561001057600080fd5b5060405161212d38038061212d83398181016040528101906100329190610343565b33600073ffffffffffffffffffffffffffffffffffffffff168173ffffffffffffffffffffffffffffffffffffffff16036100a55760006040517f1e4fbdf700000000000000000000000000000000000000000000000000000000815260040161009c9190610392565b60405180910390fd5b6100b48161021c60201b60201c565b50600073ffffffffffffffffffffffffffffffffffffffff168273ffffffffffffffffffffffffffffffffffffffff1603610124576040517f08c379a000000000000000000000000000000000000000000000000000000000815260040161011b90610430565b60405180910390fd5b600073ffffffffffffffffffffffffffffffffffffffff168173ffffffffffffffffffffffffffffffffffffffff1603610193576040517f08c379a000000000000000000000000000000000000000000000000000000000815260040161018a9061049c565b60405180910390fd5b81600160006101000a81548173ffffffffffffffffffffffffffffffffffffffff021916908373ffffffffffffffffffffffffffffffffffffffff16021790555080600260006101000a81548173ffffffffffffffffffffffffffffffffffffffff021916908373ffffffffffffffffffffffffffffffffffffffff16021790555050506104bc565b60008060009054906101000a900473ffffffffffffffffffffffffffffffffffffffff169050816000806101000a81548173ffffffffffffffffffffffffffffffffffffffff021916908373ffffffffffffffffffffffffffffffffffffffff1602179055508173ffffffffffffffffffffffffffffffffffffffff168173ffffffffffffffffffffffffffffffffffffffff167f8be0079c531659141344cd1fd0a4f28419497f9722a3daafe3b4186f6b6457e060405160405180910390a35050565b600080fd5b600073ffffffffffffffffffffffffffffffffffffffff82169050919050565b6000610310826102e5565b9050919050565b61032081610305565b811461032b57600080fd5b50565b60008151905061033d81610317565b92915050565b6000806040838503121561035a576103596102e0565b5b60006103688582860161032e565b92505060206103798582860161032e565b9150509250929050565b61038c81610305565b82525050565b60006020820190506103a76000830184610383565b92915050565b600082825260208201905092915050565b7f7374434f524520746f6b656e20616464726573732063616e6e6f74206265207a60008201527f65726f0000000000000000000000000000000000000000000000000000000000602082015250565b600061041a6023836103ad565b9150610425826103be565b604082019050919050565b600060208201905081810360008301526104498161040d565b9050919050565b7f4f70657261746f7220616464726573732063616e6e6f74206265207a65726f00600082015250565b6000610486601f836103ad565b915061049182610450565b602082019050919050565b600060208201905081810360008301526104b581610479565b9050919050565b611c62806104cb6000396000f3fe608060405234801561001057600080fd5b50600436106101005760003560e01c80638da5cb5b11610097578063f05dbb9111610066578063f05dbb911461029c578063f2976871146102ba578063f2fde38b146102d8578063fd8ab482146102f457610100565b80638da5cb5b14610202578063ab9e5f4c14610220578063afdf859d14610250578063bffe34861461026c57610100565b80635be612c7116100d35780635be612c71461018e578063715018a6146101be57806378bc9f83146101c85780638096d9a2146101e457610100565b8063073ea6ae1461010557806313960c8c146101355780632da25de314610166578063570ca73514610170575b600080fd5b61011f600480360381019061011a91906113c9565b610324565b60405161012c919061140f565b60405180910390f35b61014f600480360381019061014a919061148f565b61036d565b60405161015d929190611658565b60405180910390f35b61016e6105e0565b005b6101786108fd565b60405161018591906116ee565b60405180910390f35b6101a860048036038101906101a39190611735565b610923565b6040516101b59190611771565b60405180910390f35b6101c6610962565b005b6101e260048036038101906101dd9190611735565b610976565b005b6101ec610c3c565b6040516101f9919061140f565b60405180910390f35b61020a610c42565b6040516102179190611771565b60405180910390f35b61023a600480360381019061023591906113c9565b610c6b565b604051610247919061140f565b60405180910390f35b61026a60048036038101906102659190611735565b610cb4565b005b610286600480360381019061028191906113c9565b611079565b604051610293919061140f565b60405180910390f35b6102a4611091565b6040516102b191906117ad565b60405180910390f35b6102c26110b7565b6040516102cf919061140f565b60405180910390f35b6102f260048036038101906102ed91906113c9565b6110c1565b005b61030e600480360381019061030991906113c9565b611147565b60405161031b91906117e3565b60405180910390f35b6000600360008373ffffffffffffffffffffffffffffffffffffffff1673ffffffffffffffffffffffffffffffffffffffff168152602001908152602001600020549050919050565b6060806000805b8585905081101561040a57600060036000888885818110610398576103976117fe565b5b90506020020160208101906103ad91906113c9565b73ffffffffffffffffffffffffffffffffffffffff1673ffffffffffffffffffffffffffffffffffffffff1681526020019081526020016000205411156103fd5781806103f99061185c565b9250505b8080600101915050610374565b508067ffffffffffffffff811115610425576104246118a4565b5b6040519080825280602002602001820160405280156104535781602001602082028036833780820191505090505b5092508067ffffffffffffffff8111156104705761046f6118a4565b5b60405190808252806020026020018201604052801561049e5781602001602082028036833780820191505090505b5091506000805b868690508110156105d6576000600360008989858181106104c9576104c86117fe565b5b90506020020160208101906104de91906113c9565b73ffffffffffffffffffffffffffffffffffffffff1673ffffffffffffffffffffffffffffffffffffffff16815260200190815260200160002054905060008111156105c857878783818110610537576105366117fe565b5b905060200201602081019061054c91906113c9565b86848151811061055f5761055e6117fe565b5b602002602001019073ffffffffffffffffffffffffffffffffffffffff16908173ffffffffffffffffffffffffffffffffffffffff1681525050808584815181106105ad576105ac6117fe565b5b60200260200101818152505082806105c49061185c565b9350505b5080806001019150506104a5565b5050509250929050565b600060065411610625576040517f08c379a000000000000000000000000000000000000000000000000000000000815260040161061c90611930565b60405180910390fd5b6000600654905060005b60048054905081101561077357600060048281548110610652576106516117fe565b5b9060005260206000200160009054906101000a900473ffffffffffffffffffffffffffffffffffffffff1690506000600360008373ffffffffffffffffffffffffffffffffffffffff1673ffffffffffffffffffffffffffffffffffffffff168152602001908152602001600020541115610765576000600360008373ffffffffffffffffffffffffffffffffffffffff1673ffffffffffffffffffffffffffffffffffffffff168152602001908152602001600020819055506000600560008373ffffffffffffffffffffffffffffffffffffffff1673ffffffffffffffffffffffffffffffffffffffff16815260200190815260200160002060006101000a81548160ff0219169083151502179055505b50808060010191505061062f565b50600067ffffffffffffffff81111561078f5761078e6118a4565b5b6040519080825280602002602001820160405280156107bd5781602001602082028036833780820191505090505b50600490805190602001906107d39291906112ba565b506000600681905550600073ffffffffffffffffffffffffffffffffffffffff16600160009054906101000a900473ffffffffffffffffffffffffffffffffffffffff1673ffffffffffffffffffffffffffffffffffffffff160361086d576040517f08c379a00000000000000000000000000000000000000000000000000000000081526004016108649061199c565b60405180910390fd5b600160009054906101000a900473ffffffffffffffffffffffffffffffffffffffff1673ffffffffffffffffffffffffffffffffffffffff1663a1eb4f8a826040518263ffffffff1660e01b81526004016108c8919061140f565b600060405180830381600087803b1580156108e257600080fd5b505af11580156108f6573d6000803e3d6000fd5b5050505050565b600260009054906101000a900473ffffffffffffffffffffffffffffffffffffffff1681565b6004818154811061093357600080fd5b906000526020600020016000915054906101000a900473ffffffffffffffffffffffffffffffffffffffff1681565b61096a611167565b61097460006111ee565b565b600081116109b9576040517f08c379a00000000000000000000000000000000000000000000000000000000081526004016109b090611a08565b60405180910390fd5b80600360003373ffffffffffffffffffffffffffffffffffffffff1673ffffffffffffffffffffffffffffffffffffffff168152602001908152602001600020541015610a3b576040517f08c379a0000000000000000000000000000000000000000000000000000000008152600401610a3290611a74565b60405180910390fd5b600160009054906101000a900473ffffffffffffffffffffffffffffffffffffffff1673ffffffffffffffffffffffffffffffffffffffff1663a9059cbb33836040518363ffffffff1660e01b8152600401610a98929190611a94565b6020604051808303816000875af1158015610ab7573d6000803e3d6000fd5b505050506040513d601f19601f82011682018060405250810190610adb9190611ae9565b5080600360003373ffffffffffffffffffffffffffffffffffffffff1673ffffffffffffffffffffffffffffffffffffffff1681526020019081526020016000206000828254610b2b9190611b16565b925050819055508060066000828254610b449190611b16565b925050819055506000600360003373ffffffffffffffffffffffffffffffffffffffff1673ffffffffffffffffffffffffffffffffffffffff1681526020019081526020016000205403610beb576000600560003373ffffffffffffffffffffffffffffffffffffffff1673ffffffffffffffffffffffffffffffffffffffff16815260200190815260200160002060006101000a81548160ff0219169083151502179055505b3373ffffffffffffffffffffffffffffffffffffffff167fad28378a6f9566422e99a504c7f68e2f3f347a12e173a2103e5bdac5ace86f9982604051610c31919061140f565b60405180910390a250565b60065481565b60008060009054906101000a900473ffffffffffffffffffffffffffffffffffffffff16905090565b6000600360008373ffffffffffffffffffffffffffffffffffffffff1673ffffffffffffffffffffffffffffffffffffffff168152602001908152602001600020549050919050565b60008111610cf7576040517f08c379a0000000000000000000000000000000000000000000000000000000008152600401610cee90611a08565b60405180910390fd5b80600160009054906101000a900473ffffffffffffffffffffffffffffffffffffffff1673ffffffffffffffffffffffffffffffffffffffff166370a08231336040518263ffffffff1660e01b8152600401610d539190611771565b602060405180830381865afa158015610d70573d6000803e3d6000fd5b505050506040513d601f19601f82011682018060405250810190610d949190611b5f565b1015610dd5576040517f08c379a0000000000000000000000000000000000000000000000000000000008152600401610dcc90611bd8565b60405180910390fd5b600160009054906101000a900473ffffffffffffffffffffffffffffffffffffffff1673ffffffffffffffffffffffffffffffffffffffff1663661a081e33836040518363ffffffff1660e01b8152600401610e32929190611a94565b600060405180830381600087803b158015610e4c57600080fd5b505af1158015610e60573d6000803e3d6000fd5b505050506000600360003373ffffffffffffffffffffffffffffffffffffffff1673ffffffffffffffffffffffffffffffffffffffff1681526020019081526020016000205403610fb957600560003373ffffffffffffffffffffffffffffffffffffffff1673ffffffffffffffffffffffffffffffffffffffff16815260200190815260200160002060009054906101000a900460ff16610fb8576004339080600181540180825580915050600190039060005260206000200160009091909190916101000a81548173ffffffffffffffffffffffffffffffffffffffff021916908373ffffffffffffffffffffffffffffffffffffffff1602179055506001600560003373ffffffffffffffffffffffffffffffffffffffff1673ffffffffffffffffffffffffffffffffffffffff16815260200190815260200160002060006101000a81548160ff0219169083151502179055505b5b80600360003373ffffffffffffffffffffffffffffffffffffffff1673ffffffffffffffffffffffffffffffffffffffff16815260200190815260200160002060008282546110089190611bf8565b9250508190555080600660008282546110219190611bf8565b925050819055503373ffffffffffffffffffffffffffffffffffffffff167fb309f5f6c634e921b972bb441eab02c4bc405c6879dc0955aadf180fbe3dc45d8260405161106e919061140f565b60405180910390a250565b60036020528060005260406000206000915090505481565b600160009054906101000a900473ffffffffffffffffffffffffffffffffffffffff1681565b6000600654905090565b6110c9611167565b600073ffffffffffffffffffffffffffffffffffffffff168173ffffffffffffffffffffffffffffffffffffffff160361113b5760006040517f1e4fbdf70000000000000000000000000000000000000000000000000000000081526004016111329190611771565b60405180910390fd5b611144816111ee565b50565b60056020528060005260406000206000915054906101000a900460ff1681565b61116f6112b2565b73ffffffffffffffffffffffffffffffffffffffff1661118d610c42565b73ffffffffffffffffffffffffffffffffffffffff16146111ec576111b06112b2565b6040517f118cdaa70000000000000000000000000000000000000000000000000000000081526004016111e39190611771565b60405180910390fd5b565b60008060009054906101000a900473ffffffffffffffffffffffffffffffffffffffff169050816000806101000a81548173ffffffffffffffffffffffffffffffffffffffff021916908373ffffffffffffffffffffffffffffffffffffffff1602179055508173ffffffffffffffffffffffffffffffffffffffff168173ffffffffffffffffffffffffffffffffffffffff167f8be0079c531659141344cd1fd0a4f28419497f9722a3daafe3b4186f6b6457e060405160405180910390a35050565b600033905090565b828054828255906000526020600020908101928215611333579160200282015b828111156113325782518260006101000a81548173ffffffffffffffffffffffffffffffffffffffff021916908373ffffffffffffffffffffffffffffffffffffffff160217905550916020019190600101906112da565b5b5090506113409190611344565b5090565b5b8082111561135d576000816000905550600101611345565b5090565b600080fd5b600080fd5b600073ffffffffffffffffffffffffffffffffffffffff82169050919050565b60006113968261136b565b9050919050565b6113a68161138b565b81146113b157600080fd5b50565b6000813590506113c38161139d565b92915050565b6000602082840312156113df576113de611361565b5b60006113ed848285016113b4565b91505092915050565b6000819050919050565b611409816113f6565b82525050565b60006020820190506114246000830184611400565b92915050565b600080fd5b600080fd5b600080fd5b60008083601f84011261144f5761144e61142a565b5b8235905067ffffffffffffffff81111561146c5761146b61142f565b5b60208301915083602082028301111561148857611487611434565b5b9250929050565b600080602083850312156114a6576114a5611361565b5b600083013567ffffffffffffffff8111156114c4576114c3611366565b5b6114d085828601611439565b92509250509250929050565b600081519050919050565b600082825260208201905092915050565b6000819050602082019050919050565b6115118161138b565b82525050565b60006115238383611508565b60208301905092915050565b6000602082019050919050565b6000611547826114dc565b61155181856114e7565b935061155c836114f8565b8060005b8381101561158d5781516115748882611517565b975061157f8361152f565b925050600181019050611560565b5085935050505092915050565b600081519050919050565b600082825260208201905092915050565b6000819050602082019050919050565b6115cf816113f6565b82525050565b60006115e183836115c6565b60208301905092915050565b6000602082019050919050565b60006116058261159a565b61160f81856115a5565b935061161a836115b6565b8060005b8381101561164b57815161163288826115d5565b975061163d836115ed565b92505060018101905061161e565b5085935050505092915050565b60006040820190508181036000830152611672818561153c565b9050818103602083015261168681846115fa565b90509392505050565b6000819050919050565b60006116b46116af6116aa8461136b565b61168f565b61136b565b9050919050565b60006116c682611699565b9050919050565b60006116d8826116bb565b9050919050565b6116e8816116cd565b82525050565b600060208201905061170360008301846116df565b92915050565b611712816113f6565b811461171d57600080fd5b50565b60008135905061172f81611709565b92915050565b60006020828403121561174b5761174a611361565b5b600061175984828501611720565b91505092915050565b61176b8161138b565b82525050565b60006020820190506117866000830184611762565b92915050565b6000611797826116bb565b9050919050565b6117a78161178c565b82525050565b60006020820190506117c2600083018461179e565b92915050565b60008115159050919050565b6117dd816117c8565b82525050565b60006020820190506117f860008301846117d4565b92915050565b7f4e487b7100000000000000000000000000000000000000000000000000000000600052603260045260246000fd5b7f4e487b7100000000000000000000000000000000000000000000000000000000600052601160045260246000fd5b6000611867826113f6565b91507fffffffffffffffffffffffffffffffffffffffffffffffffffffffffffffffff82036118995761189861182d565b5b600182019050919050565b7f4e487b7100000000000000000000000000000000000000000000000000000000600052604160045260246000fd5b600082825260208201905092915050565b7f4e6f20746f6b656e7320746f20736c6173680000000000000000000000000000600082015250565b600061191a6012836118d3565b9150611925826118e4565b602082019050919050565b600060208201905081810360008301526119498161190d565b9050919050565b7f7374434f524520636f6e7472616374206e6f7420736574000000000000000000600082015250565b60006119866017836118d3565b915061199182611950565b602082019050919050565b600060208201905081810360008301526119b581611979565b9050919050565b7f416d6f756e74206d7573742062652067726561746572207468616e207a65726f600082015250565b60006119f26020836118d3565b91506119fd826119bc565b602082019050919050565b60006020820190508181036000830152611a21816119e5565b9050919050565b7f496e73756666696369656e742064656c65676174656420616d6f756e74000000600082015250565b6000611a5e601d836118d3565b9150611a6982611a28565b602082019050919050565b60006020820190508181036000830152611a8d81611a51565b9050919050565b6000604082019050611aa96000830185611762565b611ab66020830184611400565b9392505050565b611ac6816117c8565b8114611ad157600080fd5b50565b600081519050611ae381611abd565b92915050565b600060208284031215611aff57611afe611361565b5b6000611b0d84828501611ad4565b91505092915050565b6000611b21826113f6565b9150611b2c836113f6565b9250828203905081811115611b4457611b4361182d565b5b92915050565b600081519050611b5981611709565b92915050565b600060208284031215611b7557611b74611361565b5b6000611b8384828501611b4a565b91505092915050565b7f496e73756666696369656e742062616c616e6365000000000000000000000000600082015250565b6000611bc26014836118d3565b9150611bcd82611b8c565b602082019050919050565b60006020820190508181036000830152611bf181611bb5565b9050919050565b6000611c03826113f6565b9150611c0e836113f6565b9250828201905080821115611c2657611c2561182d565b5b9291505056fea264697066735822122050734b1797c07108040638bbb6162d5bc807ffa3d8fd2d8cebc8a1fed48a472b64736f6c634300081c0033",
  "linkReferences": {},
  "deployedLinkReferences": {}
}