{
  "_format": "hh-sol-artifact-1",
  "contractName": "stTOKEN",
  "sourceName": "contracts/stTOKEN.sol",
  "abi": [
    {
      "inputs": [
        {
          "internalType": "string",
          "name": "name",
          "type": "string"
        },
        {
          "internalType": "string",
          "name": "symbol",
          "type": "string"
        }
      ],
      "stateMutability": "nonpayable",
      "type": "constructor"
    },
    {
      "inputs": [
        {
          "internalType": "address",
          "name": "spender",
          "type": "address"
        },
        {
          "internalType": "uint256",
          "name": "allowance",
          "type": "uint256"
        },
        {
          "internalType": "uint256",
          "name": "needed",
          "type": "uint256"
        }
      ],
      "name": "ERC20InsufficientAllowance",
      "type": "error"
    },
    {
      "inputs": [
        {
          "internalType": "address",
          "name": "sender",
          "type": "address"
        },
        {
          "internalType": "uint256",
          "name": "balance",
          "type": "uint256"
        },
        {
          "internalType": "uint256",
          "name": "needed",
          "type": "uint256"
        }
      ],
      "name": "ERC20InsufficientBalance",
      "type": "error"
    },
    {
      "inputs": [
        {
          "internalType": "address",
          "name": "approver",
          "type": "address"
        }
      ],
      "name": "ERC20InvalidApprover",
      "type": "error"
    },
    {
      "inputs": [
        {
          "internalType": "address",
          "name": "receiver",
          "type": "address"
        }
      ],
      "name": "ERC20InvalidReceiver",
      "type": "error"
    },
    {
      "inputs": [
        {
          "internalType": "address",
          "name": "sender",
          "type": "address"
        }
      ],
      "name": "ERC20InvalidSender",
      "type": "error"
    },
    {
      "inputs": [
        {
          "internalType": "address",
          "name": "spender",
          "type": "address"
        }
      ],
      "name": "ERC20InvalidSpender",
      "type": "error"
    },
    {
      "inputs": [
        {
          "internalType": "address",
          "name": "owner",
          "type": "address"
        }
      ],
      "name": "OwnableInvalidOwner",
      "type": "error"
    },
    {
      "inputs": [
        {
          "internalType": "address",
          "name": "account",
          "type": "address"
        }
      ],
      "name": "OwnableUnauthorizedAccount",
      "type": "error"
    },
    {
      "anonymous": false,
      "inputs": [
        {
          "indexed": true,
          "internalType": "address",
          "name": "owner",
          "type": "address"
        },
        {
          "indexed": true,
          "internalType": "address",
          "name": "spender",
          "type": "address"
        },
        {
          "indexed": false,
          "internalType": "uint256",
          "name": "value",
          "type": "uint256"
        }
      ],
      "name": "Approval",
      "type": "event"
    },
    {
      "anonymous": false,
      "inputs": [
        {
          "indexed": true,
          "internalType": "address",
          "name": "previousOwner",
          "type": "address"
        },
        {
          "indexed": true,
          "internalType": "address",
          "name": "newOwner",
          "type": "address"
        }
      ],
      "name": "OwnershipTransferred",
      "type": "event"
    },
    {
      "anonymous": false,
      "inputs": [
        {
          "indexed": true,
          "internalType": "address",
          "name": "from",
          "type": "address"
        },
        {
          "indexed": false,
          "internalType": "uint256",
          "name": "amount",
          "type": "uint256"
        }
      ],
      "name": "TokensBurned",
      "type": "event"
    },
    {
      "anonymous": false,
      "inputs": [
        {
          "indexed": true,
          "internalType": "address",
          "name": "to",
          "type": "address"
        },
        {
          "indexed": false,
          "internalType": "uint256",
          "name": "amount",
          "type": "uint256"
        }
      ],
      "name": "TokensMinted",
      "type": "event"
    },
    {
      "anonymous": false,
      "inputs": [
        {
          "indexed": true,
          "internalType": "address",
          "name": "from",
          "type": "address"
        },
        {
          "indexed": true,
          "internalType": "address",
          "name": "to",
          "type": "address"
        },
        {
          "indexed": false,
          "internalType": "uint256",
          "name": "value",
          "type": "uint256"
        }
      ],
      "name": "Transfer",
      "type": "event"
    },
    {
      "inputs": [],
      "name": "USDCToken",
      "outputs": [
        {
          "internalType": "contract USDC",
          "name": "",
          "type": "address"
        }
      ],
      "stateMutability": "view",
      "type": "function"
    },
    {
      "inputs": [
        {
          "internalType": "address",
          "name": "owner",
          "type": "address"
        },
        {
          "internalType": "address",
          "name": "spender",
          "type": "address"
        }
      ],
      "name": "allowance",
      "outputs": [
        {
          "internalType": "uint256",
          "name": "",
          "type": "uint256"
        }
      ],
      "stateMutability": "view",
      "type": "function"
    },
    {
      "inputs": [
        {
          "internalType": "address",
          "name": "spender",
          "type": "address"
        },
        {
          "internalType": "uint256",
          "name": "value",
          "type": "uint256"
        }
      ],
      "name": "approve",
      "outputs": [
        {
          "internalType": "bool",
          "name": "",
          "type": "bool"
        }
      ],
      "stateMutability": "nonpayable",
      "type": "function"
    },
    {
      "inputs": [
        {
          "internalType": "address",
          "name": "account",
          "type": "address"
        }
      ],
      "name": "balanceOf",
      "outputs": [
        {
          "internalType": "uint256",
          "name": "",
          "type": "uint256"
        }
      ],
      "stateMutability": "view",
      "type": "function"
    },
    {
      "inputs": [
        {
          "internalType": "uint256",
          "name": "amount",
          "type": "uint256"
        }
      ],
      "name": "burn",
      "outputs": [],
      "stateMutability": "nonpayable",
      "type": "function"
    },
    {
      "inputs": [
        {
          "internalType": "uint256",
          "name": "amount",
          "type": "uint256"
        }
      ],
      "name": "convertToUSDCAndSendTowUSDC",
      "outputs": [],
      "stateMutability": "nonpayable",
      "type": "function"
    },
    {
      "inputs": [],
      "name": "decimals",
      "outputs": [
        {
          "internalType": "uint8",
          "name": "",
          "type": "uint8"
        }
      ],
      "stateMutability": "pure",
      "type": "function"
    },
    {
      "inputs": [],
      "name": "eigen",
      "outputs": [
        {
          "internalType": "contract Eigen",
          "name": "",
          "type": "address"
        }
      ],
      "stateMutability": "view",
      "type": "function"
    },
    {
      "inputs": [
        {
          "internalType": "uint256",
          "name": "amount",
          "type": "uint256"
        }
      ],
      "name": "mint",
      "outputs": [],
      "stateMutability": "nonpayable",
      "type": "function"
    },
    {
      "inputs": [],
      "name": "name",
      "outputs": [
        {
          "internalType": "string",
          "name": "",
          "type": "string"
        }
      ],
      "stateMutability": "view",
      "type": "function"
    },
    {
      "inputs": [],
      "name": "owner",
      "outputs": [
        {
          "internalType": "address",
          "name": "",
          "type": "address"
        }
      ],
      "stateMutability": "view",
      "type": "function"
    },
    {
      "inputs": [],
      "name": "renounceOwnership",
      "outputs": [],
      "stateMutability": "nonpayable",
      "type": "function"
    },
    {
      "inputs": [
        {
          "internalType": "address",
          "name": "_eigenAddress",
          "type": "address"
        }
      ],
      "name": "setEigenAddress",
      "outputs": [],
      "stateMutability": "nonpayable",
      "type": "function"
    },
    {
      "inputs": [
        {
          "internalType": "address",
          "name": "_USDCAddress",
          "type": "address"
        }
      ],
      "name": "setUSDCAddress",
      "outputs": [],
      "stateMutability": "nonpayable",
      "type": "function"
    },
    {
      "inputs": [
        {
          "internalType": "address",
          "name": "_wUSDCAddress",
          "type": "address"
        }
      ],
      "name": "setwUSDCAddress",
      "outputs": [],
      "stateMutability": "nonpayable",
      "type": "function"
    },
    {
      "inputs": [],
      "name": "symbol",
      "outputs": [
        {
          "internalType": "string",
          "name": "",
          "type": "string"
        }
      ],
      "stateMutability": "view",
      "type": "function"
    },
    {
      "inputs": [],
      "name": "totalSupply",
      "outputs": [
        {
          "internalType": "uint256",
          "name": "",
          "type": "uint256"
        }
      ],
      "stateMutability": "view",
      "type": "function"
    },
    {
      "inputs": [
        {
          "internalType": "address",
          "name": "to",
          "type": "address"
        },
        {
          "internalType": "uint256",
          "name": "value",
          "type": "uint256"
        }
      ],
      "name": "transfer",
      "outputs": [
        {
          "internalType": "bool",
          "name": "",
          "type": "bool"
        }
      ],
      "stateMutability": "nonpayable",
      "type": "function"
    },
    {
      "inputs": [
        {
          "internalType": "address",
          "name": "from",
          "type": "address"
        },
        {
          "internalType": "address",
          "name": "to",
          "type": "address"
        },
        {
          "internalType": "uint256",
          "name": "value",
          "type": "uint256"
        }
      ],
      "name": "transferFrom",
      "outputs": [
        {
          "internalType": "bool",
          "name": "",
          "type": "bool"
        }
      ],
      "stateMutability": "nonpayable",
      "type": "function"
    },
    {
      "inputs": [
        {
          "internalType": "address",
          "name": "newOwner",
          "type": "address"
        }
      ],
      "name": "transferOwnership",
      "outputs": [],
      "stateMutability": "nonpayable",
      "type": "function"
    },
    {
      "inputs": [
        {
          "internalType": "address",
          "name": "account",
          "type": "address"
        },
        {
          "internalType": "uint256",
          "name": "amount",
          "type": "uint256"
        }
      ],
      "name": "transferToEigen",
      "outputs": [],
      "stateMutability": "nonpayable",
      "type": "function"
    },
    {
      "inputs": [],
      "name": "wusdcToken",
      "outputs": [
        {
          "internalType": "contract wUSDC",
          "name": "",
          "type": "address"
        }
      ],
      "stateMutability": "view",
      "type": "function"
    }
  ],
  "bytecode": "0x608060405234801561001057600080fd5b5060405161265938038061265983398181016040528101906100329190610385565b336040518060400160405280601481526020017f4c6971756964205374616b696e6720546f6b656e0000000000000000000000008152506040518060400160405280600781526020017f7374544f4b454e0000000000000000000000000000000000000000000000000081525081600390816100ae919061061e565b5080600490816100be919061061e565b505050600073ffffffffffffffffffffffffffffffffffffffff168173ffffffffffffffffffffffffffffffffffffffff16036101335760006040517f1e4fbdf700000000000000000000000000000000000000000000000000000000815260040161012a9190610731565b60405180910390fd5b6101428161014a60201b60201c565b50505061074c565b6000600560009054906101000a900473ffffffffffffffffffffffffffffffffffffffff16905081600560006101000a81548173ffffffffffffffffffffffffffffffffffffffff021916908373ffffffffffffffffffffffffffffffffffffffff1602179055508173ffffffffffffffffffffffffffffffffffffffff168173ffffffffffffffffffffffffffffffffffffffff167f8be0079c531659141344cd1fd0a4f28419497f9722a3daafe3b4186f6b6457e060405160405180910390a35050565b6000604051905090565b600080fd5b600080fd5b600080fd5b600080fd5b6000601f19601f8301169050919050565b7f4e487b7100000000000000000000000000000000000000000000000000000000600052604160045260246000fd5b6102778261022e565b810181811067ffffffffffffffff821117156102965761029561023f565b5b80604052505050565b60006102a9610210565b90506102b5828261026e565b919050565b600067ffffffffffffffff8211156102d5576102d461023f565b5b6102de8261022e565b9050602081019050919050565b60005b838110156103095780820151818401526020810190506102ee565b60008484015250505050565b6000610328610323846102ba565b61029f565b90508281526020810184848401111561034457610343610229565b5b61034f8482856102eb565b509392505050565b600082601f83011261036c5761036b610224565b5b815161037c848260208601610315565b91505092915050565b6000806040838503121561039c5761039b61021a565b5b600083015167ffffffffffffffff8111156103ba576103b961021f565b5b6103c685828601610357565b925050602083015167ffffffffffffffff8111156103e7576103e661021f565b5b6103f385828601610357565b9150509250929050565b600081519050919050565b7f4e487b7100000000000000000000000000000000000000000000000000000000600052602260045260246000fd5b6000600282049050600182168061044f57607f821691505b60208210810361046257610461610408565b5b50919050565b60008190508160005260206000209050919050565b60006020601f8301049050919050565b600082821b905092915050565b6000600883026104ca7fffffffffffffffffffffffffffffffffffffffffffffffffffffffffffffffff8261048d565b6104d4868361048d565b95508019841693508086168417925050509392505050565b6000819050919050565b6000819050919050565b600061051b610516610511846104ec565b6104f6565b6104ec565b9050919050565b6000819050919050565b61053583610500565b61054961054182610522565b84845461049a565b825550505050565b600090565b61055e610551565b61056981848461052c565b505050565b5b8181101561058d57610582600082610556565b60018101905061056f565b5050565b601f8211156105d2576105a381610468565b6105ac8461047d565b810160208510156105bb578190505b6105cf6105c78561047d565b83018261056e565b50505b505050565b600082821c905092915050565b60006105f5600019846008026105d7565b1980831691505092915050565b600061060e83836105e4565b9150826002028217905092915050565b610627826103fd565b67ffffffffffffffff8111156106405761063f61023f565b5b61064a8254610437565b610655828285610591565b600060209050601f8311600181146106885760008415610676578287015190505b6106808582610602565b8655506106e8565b601f19841661069686610468565b60005b828110156106be57848901518255600182019150602085019450602081019050610699565b868310156106db57848901516106d7601f8916826105e4565b8355505b6001600288020188555050505b505050505050565b600073ffffffffffffffffffffffffffffffffffffffff82169050919050565b600061071b826106f0565b9050919050565b61072b81610710565b82525050565b60006020820190506107466000830184610722565b92915050565b611efe8061075b6000396000f3fe608060405234801561001057600080fd5b50600436106101425760003560e01c80637af0a2b9116100b8578063aaf5bfc31161007c578063aaf5bfc314610355578063bdc99b6314610371578063dd62ed3e1461038d578063ed934d27146103bd578063f164a074146103d9578063f2fde38b146103f557610142565b80637af0a2b9146102af5780638da5cb5b146102cd57806395d89b41146102eb578063a0712d6814610309578063a9059cbb1461032557610142565b806342966c681161010a57806342966c68146102015780634c34c8de1461021d578063661a081e1461023b578063677c0c671461025757806370a0823114610275578063715018a6146102a557610142565b806306fdde0314610147578063095ea7b31461016557806318160ddd1461019557806323b872dd146101b3578063313ce567146101e3575b600080fd5b61014f610411565b60405161015c919061172c565b60405180910390f35b61017f600480360381019061017a91906117e7565b6104a3565b60405161018c9190611842565b60405180910390f35b61019d6104c6565b6040516101aa919061186c565b60405180910390f35b6101cd60048036038101906101c89190611887565b6104d0565b6040516101da9190611842565b60405180910390f35b6101eb6104ff565b6040516101f891906118f6565b60405180910390f35b61021b60048036038101906102169190611911565b610508565b005b6102256105f1565b604051610232919061199d565b60405180910390f35b610255600480360381019061025091906117e7565b610617565b005b61025f610766565b60405161026c91906119d9565b60405180910390f35b61028f600480360381019061028a91906119f4565b61078c565b60405161029c919061186c565b60405180910390f35b6102ad6107d4565b005b6102b76107e8565b6040516102c49190611a42565b60405180910390f35b6102d561080e565b6040516102e29190611a6c565b60405180910390f35b6102f3610838565b604051610300919061172c565b60405180910390f35b610323600480360381019061031e9190611911565b6108ca565b005b61033f600480360381019061033a91906117e7565b610968565b60405161034c9190611842565b60405180910390f35b61036f600480360381019061036a91906119f4565b61098b565b005b61038b600480360381019061038691906119f4565b6109d7565b005b6103a760048036038101906103a29190611a87565b610a23565b6040516103b4919061186c565b60405180910390f35b6103d760048036038101906103d291906119f4565b610aaa565b005b6103f360048036038101906103ee9190611911565b610af6565b005b61040f600480360381019061040a91906119f4565b610e26565b005b60606003805461042090611af6565b80601f016020809104026020016040519081016040528092919081815260200182805461044c90611af6565b80156104995780601f1061046e57610100808354040283529160200191610499565b820191906000526020600020905b81548152906001019060200180831161047c57829003601f168201915b5050505050905090565b6000806104ae610eac565b90506104bb818585610eb4565b600191505092915050565b6000600254905090565b6000806104db610eac565b90506104e8858285610ec6565b6104f3858585610f5b565b60019150509392505050565b60006012905090565b6000811161054b576040517f08c379a000000000000000000000000000000000000000000000000000000000815260040161054290611b73565b60405180910390fd5b806105553361078c565b1015610596576040517f08c379a000000000000000000000000000000000000000000000000000000000815260040161058d90611bdf565b60405180910390fd5b6105a0338261104f565b3373ffffffffffffffffffffffffffffffffffffffff167ffd38818f5291bf0bb3a2a48aadc06ba8757865d1dabd804585338aab3009dcb6826040516105e6919061186c565b60405180910390a250565b600760009054906101000a900473ffffffffffffffffffffffffffffffffffffffff1681565b600660009054906101000a900473ffffffffffffffffffffffffffffffffffffffff1673ffffffffffffffffffffffffffffffffffffffff163373ffffffffffffffffffffffffffffffffffffffff16146106a7576040517f08c379a000000000000000000000000000000000000000000000000000000000815260040161069e90611c71565b60405180910390fd5b600081116106ea576040517f08c379a00000000000000000000000000000000000000000000000000000000081526004016106e190611b73565b60405180910390fd5b806106f48361078c565b1015610735576040517f08c379a000000000000000000000000000000000000000000000000000000000815260040161072c90611bdf565b60405180910390fd5b61076282600660009054906101000a900473ffffffffffffffffffffffffffffffffffffffff1683610f5b565b5050565b600660009054906101000a900473ffffffffffffffffffffffffffffffffffffffff1681565b60008060008373ffffffffffffffffffffffffffffffffffffffff1673ffffffffffffffffffffffffffffffffffffffff168152602001908152602001600020549050919050565b6107dc6110d1565b6107e66000611158565b565b600860009054906101000a900473ffffffffffffffffffffffffffffffffffffffff1681565b6000600560009054906101000a900473ffffffffffffffffffffffffffffffffffffffff16905090565b60606004805461084790611af6565b80601f016020809104026020016040519081016040528092919081815260200182805461087390611af6565b80156108c05780601f10610895576101008083540402835291602001916108c0565b820191906000526020600020905b8154815290600101906020018083116108a357829003601f168201915b5050505050905090565b6000811161090d576040517f08c379a000000000000000000000000000000000000000000000000000000000815260040161090490611b73565b60405180910390fd5b610917338261121e565b3373ffffffffffffffffffffffffffffffffffffffff167f3f2c9d57c068687834f0de942a9babb9e5acab57d516d3480a3c16ee165a42738260405161095d919061186c565b60405180910390a250565b600080610973610eac565b9050610980818585610f5b565b600191505092915050565b6109936110d1565b80600760006101000a81548173ffffffffffffffffffffffffffffffffffffffff021916908373ffffffffffffffffffffffffffffffffffffffff16021790555050565b6109df6110d1565b80600660006101000a81548173ffffffffffffffffffffffffffffffffffffffff021916908373ffffffffffffffffffffffffffffffffffffffff16021790555050565b6000600160008473ffffffffffffffffffffffffffffffffffffffff1673ffffffffffffffffffffffffffffffffffffffff16815260200190815260200160002060008373ffffffffffffffffffffffffffffffffffffffff1673ffffffffffffffffffffffffffffffffffffffff16815260200190815260200160002054905092915050565b610ab26110d1565b80600860006101000a81548173ffffffffffffffffffffffffffffffffffffffff021916908373ffffffffffffffffffffffffffffffffffffffff16021790555050565b600660009054906101000a900473ffffffffffffffffffffffffffffffffffffffff1673ffffffffffffffffffffffffffffffffffffffff163373ffffffffffffffffffffffffffffffffffffffff1614610b86576040517f08c379a0000000000000000000000000000000000000000000000000000000008152600401610b7d90611c71565b60405180910390fd5b60008111610bc9576040517f08c379a0000000000000000000000000000000000000000000000000000000008152600401610bc090611b73565b60405180910390fd5b80610bd33361078c565b1015610c14576040517f08c379a0000000000000000000000000000000000000000000000000000000008152600401610c0b90611bdf565b60405180910390fd5b600073ffffffffffffffffffffffffffffffffffffffff16600860009054906101000a900473ffffffffffffffffffffffffffffffffffffffff1673ffffffffffffffffffffffffffffffffffffffff1603610ca5576040517f08c379a0000000000000000000000000000000000000000000000000000000008152600401610c9c90611cdd565b60405180910390fd5b600073ffffffffffffffffffffffffffffffffffffffff16600760009054906101000a900473ffffffffffffffffffffffffffffffffffffffff1673ffffffffffffffffffffffffffffffffffffffff1603610d36576040517f08c379a0000000000000000000000000000000000000000000000000000000008152600401610d2d90611d49565b60405180910390fd5b610d40338261104f565b6000600860009054906101000a900473ffffffffffffffffffffffffffffffffffffffff1673ffffffffffffffffffffffffffffffffffffffff1663900921d7836040518263ffffffff1660e01b8152600401610d9d919061186c565b6020604051808303816000875af1158015610dbc573d6000803e3d6000fd5b505050506040513d601f19601f82011682018060405250810190610de09190611d95565b905080610e22576040517f08c379a0000000000000000000000000000000000000000000000000000000008152600401610e1990611e0e565b60405180910390fd5b5050565b610e2e6110d1565b600073ffffffffffffffffffffffffffffffffffffffff168173ffffffffffffffffffffffffffffffffffffffff1603610ea05760006040517f1e4fbdf7000000000000000000000000000000000000000000000000000000008152600401610e979190611a6c565b60405180910390fd5b610ea981611158565b50565b600033905090565b610ec183838360016112a0565b505050565b6000610ed28484610a23565b90507fffffffffffffffffffffffffffffffffffffffffffffffffffffffffffffffff811015610f555781811015610f45578281836040517ffb8f41b2000000000000000000000000000000000000000000000000000000008152600401610f3c93929190611e2e565b60405180910390fd5b610f54848484840360006112a0565b5b50505050565b600073ffffffffffffffffffffffffffffffffffffffff168373ffffffffffffffffffffffffffffffffffffffff1603610fcd5760006040517f96c6fd1e000000000000000000000000000000000000000000000000000000008152600401610fc49190611a6c565b60405180910390fd5b600073ffffffffffffffffffffffffffffffffffffffff168273ffffffffffffffffffffffffffffffffffffffff160361103f5760006040517fec442f050000000000000000000000000000000000000000000000000000000081526004016110369190611a6c565b60405180910390fd5b61104a838383611477565b505050565b600073ffffffffffffffffffffffffffffffffffffffff168273ffffffffffffffffffffffffffffffffffffffff16036110c15760006040517f96c6fd1e0000000000000000000000000000000000000000000000000000000081526004016110b89190611a6c565b60405180910390fd5b6110cd82600083611477565b5050565b6110d9610eac565b73ffffffffffffffffffffffffffffffffffffffff166110f761080e565b73ffffffffffffffffffffffffffffffffffffffff16146111565761111a610eac565b6040517f118cdaa700000000000000000000000000000000000000000000000000000000815260040161114d9190611a6c565b60405180910390fd5b565b6000600560009054906101000a900473ffffffffffffffffffffffffffffffffffffffff16905081600560006101000a81548173ffffffffffffffffffffffffffffffffffffffff021916908373ffffffffffffffffffffffffffffffffffffffff1602179055508173ffffffffffffffffffffffffffffffffffffffff168173ffffffffffffffffffffffffffffffffffffffff167f8be0079c531659141344cd1fd0a4f28419497f9722a3daafe3b4186f6b6457e060405160405180910390a35050565b600073ffffffffffffffffffffffffffffffffffffffff168273ffffffffffffffffffffffffffffffffffffffff16036112905760006040517fec442f050000000000000000000000000000000000000000000000000000000081526004016112879190611a6c565b60405180910390fd5b61129c60008383611477565b5050565b600073ffffffffffffffffffffffffffffffffffffffff168473ffffffffffffffffffffffffffffffffffffffff16036113125760006040517fe602df050000000000000000000000000000000000000000000000000000000081526004016113099190611a6c565b60405180910390fd5b600073ffffffffffffffffffffffffffffffffffffffff168373ffffffffffffffffffffffffffffffffffffffff16036113845760006040517f94280d6200000000000000000000000000000000000000000000000000000000815260040161137b9190611a6c565b60405180910390fd5b81600160008673ffffffffffffffffffffffffffffffffffffffff1673ffffffffffffffffffffffffffffffffffffffff16815260200190815260200160002060008573ffffffffffffffffffffffffffffffffffffffff1673ffffffffffffffffffffffffffffffffffffffff168152602001908152602001600020819055508015611471578273ffffffffffffffffffffffffffffffffffffffff168473ffffffffffffffffffffffffffffffffffffffff167f8c5be1e5ebec7d5bd14f71427d1e84f3dd0314c0f7b2291e5b200ac8c7c3b92584604051611468919061186c565b60405180910390a35b50505050565b600073ffffffffffffffffffffffffffffffffffffffff168373ffffffffffffffffffffffffffffffffffffffff16036114c95780600260008282546114bd9190611e94565b9250508190555061159c565b60008060008573ffffffffffffffffffffffffffffffffffffffff1673ffffffffffffffffffffffffffffffffffffffff16815260200190815260200160002054905081811015611555578381836040517fe450d38c00000000000000000000000000000000000000000000000000000000815260040161154c93929190611e2e565b60405180910390fd5b8181036000808673ffffffffffffffffffffffffffffffffffffffff1673ffffffffffffffffffffffffffffffffffffffff16815260200190815260200160002081905550505b600073ffffffffffffffffffffffffffffffffffffffff168273ffffffffffffffffffffffffffffffffffffffff16036115e55780600260008282540392505081905550611632565b806000808473ffffffffffffffffffffffffffffffffffffffff1673ffffffffffffffffffffffffffffffffffffffff168152602001908152602001600020600082825401925050819055505b8173ffffffffffffffffffffffffffffffffffffffff168373ffffffffffffffffffffffffffffffffffffffff167fddf252ad1be2c89b69c2b068fc378daa952ba7f163c4a11628f55a4df523b3ef8360405161168f919061186c565b60405180910390a3505050565b600081519050919050565b600082825260208201905092915050565b60005b838110156116d65780820151818401526020810190506116bb565b60008484015250505050565b6000601f19601f8301169050919050565b60006116fe8261169c565b61170881856116a7565b93506117188185602086016116b8565b611721816116e2565b840191505092915050565b6000602082019050818103600083015261174681846116f3565b905092915050565b600080fd5b600073ffffffffffffffffffffffffffffffffffffffff82169050919050565b600061177e82611753565b9050919050565b61178e81611773565b811461179957600080fd5b50565b6000813590506117ab81611785565b92915050565b6000819050919050565b6117c4816117b1565b81146117cf57600080fd5b50565b6000813590506117e1816117bb565b92915050565b600080604083850312156117fe576117fd61174e565b5b600061180c8582860161179c565b925050602061181d858286016117d2565b9150509250929050565b60008115159050919050565b61183c81611827565b82525050565b60006020820190506118576000830184611833565b92915050565b611866816117b1565b82525050565b6000602082019050611881600083018461185d565b92915050565b6000806000606084860312156118a05761189f61174e565b5b60006118ae8682870161179c565b93505060206118bf8682870161179c565b92505060406118d0868287016117d2565b9150509250925092565b600060ff82169050919050565b6118f0816118da565b82525050565b600060208201905061190b60008301846118e7565b92915050565b6000602082840312156119275761192661174e565b5b6000611935848285016117d2565b91505092915050565b6000819050919050565b600061196361195e61195984611753565b61193e565b611753565b9050919050565b600061197582611948565b9050919050565b60006119878261196a565b9050919050565b6119978161197c565b82525050565b60006020820190506119b2600083018461198e565b92915050565b60006119c38261196a565b9050919050565b6119d3816119b8565b82525050565b60006020820190506119ee60008301846119ca565b92915050565b600060208284031215611a0a57611a0961174e565b5b6000611a188482850161179c565b91505092915050565b6000611a2c8261196a565b9050919050565b611a3c81611a21565b82525050565b6000602082019050611a576000830184611a33565b92915050565b611a6681611773565b82525050565b6000602082019050611a816000830184611a5d565b92915050565b60008060408385031215611a9e57611a9d61174e565b5b6000611aac8582860161179c565b9250506020611abd8582860161179c565b9150509250929050565b7f4e487b7100000000000000000000000000000000000000000000000000000000600052602260045260246000fd5b60006002820490506001821680611b0e57607f821691505b602082108103611b2157611b20611ac7565b5b50919050565b7f416d6f756e74206d7573742062652067726561746572207468616e207a65726f600082015250565b6000611b5d6020836116a7565b9150611b6882611b27565b602082019050919050565b60006020820190508181036000830152611b8c81611b50565b9050919050565b7f496e73756666696369656e742062616c616e6365000000000000000000000000600082015250565b6000611bc96014836116a7565b9150611bd482611b93565b602082019050919050565b60006020820190508181036000830152611bf881611bbc565b9050919050565b7f4f6e6c7920656967656e20636f6e74726163742063616e2063616c6c2074686960008201527f732066756e6374696f6e00000000000000000000000000000000000000000000602082015250565b6000611c5b602a836116a7565b9150611c6682611bff565b604082019050919050565b60006020820190508181036000830152611c8a81611c4e565b9050919050565b7f775553444320636f6e7472616374206e6f742073657400000000000000000000600082015250565b6000611cc76016836116a7565b9150611cd282611c91565b602082019050919050565b60006020820190508181036000830152611cf681611cba565b9050919050565b7f5553444320636f6e7472616374206e6f74207365740000000000000000000000600082015250565b6000611d336015836116a7565b9150611d3e82611cfd565b602082019050919050565b60006020820190508181036000830152611d6281611d26565b9050919050565b611d7281611827565b8114611d7d57600080fd5b50565b600081519050611d8f81611d69565b92915050565b600060208284031215611dab57611daa61174e565b5b6000611db984828501611d80565b91505092915050565b7f775553444320636f6e76657273696f6e206661696c6564000000000000000000600082015250565b6000611df86017836116a7565b9150611e0382611dc2565b602082019050919050565b60006020820190508181036000830152611e2781611deb565b9050919050565b6000606082019050611e436000830186611a5d565b611e50602083018561185d565b611e5d604083018461185d565b949350505050565b7f4e487b7100000000000000000000000000000000000000000000000000000000600052601160045260246000fd5b6000611e9f826117b1565b9150611eaa836117b1565b9250828201905080821115611ec257611ec1611e65565b5b9291505056fea26469706673582212208a0c3eac7444502aef537f590f2ade7cd7f52b66bcf087dae31f378337260fe864736f6c634300081c0033",
  "linkReferences": {},
  "deployedLinkReferences": {}
}