{
  "_format": "hh-sol-artifact-1",
  "contractName": "Operator",
  "sourceName": "contracts/Operator.sol",
  "abi": [
    {
      "inputs": [],
      "stateMutability": "nonpayable",
      "type": "constructor"
    },
    {
      "inputs": [],
      "name": "CUSDToken",
      "outputs": [
        {
          "internalType": "contract CUSD",
          "name": "",
          "type": "address"
        }
      ],
      "stateMutability": "view",
      "type": "function"
    },
    {
      "inputs": [
        {
          "internalType": "uint256",
          "name": "amount",
          "type": "uint256"
        }
      ],
      "name": "borrowAgainstDelegation",
      "outputs": [],
      "stateMutability": "nonpayable",
      "type": "function"
    },
    {
      "inputs": [],
      "name": "eigen",
      "outputs": [
        {
          "internalType": "contract Eigen",
          "name": "",
          "type": "address"
        }
      ],
      "stateMutability": "view",
      "type": "function"
    },
    {
      "inputs": [],
      "name": "getLoanStatus",
      "outputs": [
        {
          "internalType": "uint256",
          "name": "amount",
          "type": "uint256"
        },
        {
          "internalType": "uint256",
          "name": "dueTime",
          "type": "uint256"
        },
        {
          "internalType": "bool",
          "name": "isRepaid",
          "type": "bool"
        }
      ],
      "stateMutability": "view",
      "type": "function"
    },
    {
      "inputs": [],
      "name": "getRepaymentAmount",
      "outputs": [
        {
          "internalType": "uint256",
          "name": "",
          "type": "uint256"
        }
      ],
      "stateMutability": "view",
      "type": "function"
    },
    {
      "inputs": [],
      "name": "getTotalDelegated",
      "outputs": [
        {
          "internalType": "uint256",
          "name": "",
          "type": "uint256"
        }
      ],
      "stateMutability": "view",
      "type": "function"
    },
    {
      "inputs": [],
      "name": "loanManager",
      "outputs": [
        {
          "internalType": "contract LoanManager",
          "name": "",
          "type": "address"
        }
      ],
      "stateMutability": "view",
      "type": "function"
    },
    {
      "inputs": [],
      "name": "owner",
      "outputs": [
        {
          "internalType": "address",
          "name": "",
          "type": "address"
        }
      ],
      "stateMutability": "view",
      "type": "function"
    },
    {
      "inputs": [
        {
          "internalType": "address",
          "name": "token",
          "type": "address"
        },
        {
          "internalType": "address",
          "name": "to",
          "type": "address"
        },
        {
          "internalType": "uint256",
          "name": "amount",
          "type": "uint256"
        }
      ],
      "name": "recoverERC20",
      "outputs": [],
      "stateMutability": "nonpayable",
      "type": "function"
    },
    {
      "inputs": [],
      "name": "repayLoan",
      "outputs": [],
      "stateMutability": "nonpayable",
      "type": "function"
    },
    {
      "inputs": [
        {
          "internalType": "address",
          "name": "_CUSDToken",
          "type": "address"
        }
      ],
      "name": "setCUSD",
      "outputs": [],
      "stateMutability": "nonpayable",
      "type": "function"
    },
    {
      "inputs": [
        {
          "internalType": "address",
          "name": "_eigen",
          "type": "address"
        }
      ],
      "name": "setEigen",
      "outputs": [],
      "stateMutability": "nonpayable",
      "type": "function"
    },
    {
      "inputs": [
        {
          "internalType": "address",
          "name": "_loanManager",
          "type": "address"
        }
      ],
      "name": "setLoanManager",
      "outputs": [],
      "stateMutability": "nonpayable",
      "type": "function"
    },
    {
      "inputs": [
        {
          "internalType": "address",
          "name": "to",
          "type": "address"
        },
        {
          "internalType": "uint256",
          "name": "amount",
          "type": "uint256"
        }
      ],
      "name": "transferCUSD",
      "outputs": [],
      "stateMutability": "nonpayable",
      "type": "function"
    }
  ],
  "bytecode": "0x6080604052348015600f57600080fd5b5033600360006101000a81548173ffffffffffffffffffffffffffffffffffffffff021916908373ffffffffffffffffffffffffffffffffffffffff160217905550611522806100606000396000f3fe608060405234801561001057600080fd5b50600436106100ea5760003560e01c80635fcd700a1161008c578063acc1ab1311610066578063acc1ab131461020f578063b3ccbcfe1461022f578063f29768711461024d578063f966ade71461026b576100ea565b80635fcd700a146101b7578063677c0c67146101d35780638da5cb5b146101f1576100ea565b80631efc1469116100c85780631efc1469146101455780632efa4bf8146101635780635772ae701461017f5780635e51ec091461019b576100ea565b8063074f2543146100ef5780630c9b528a1461010d5780631171bda914610129575b600080fd5b6100f7610275565b6040516101049190610eac565b60405180910390f35b61012760048036038101906101229190610ef8565b61030d565b005b610143600480360381019061013e9190610f83565b61042d565b005b61014d610541565b60405161015a9190611035565b60405180910390f35b61017d60048036038101906101789190611050565b610567565b005b61019960048036038101906101949190611050565b6106aa565b005b6101b560048036038101906101b0919061107d565b6107ed565b005b6101d160048036038101906101cc9190611050565b610922565b005b6101db610a64565b6040516101e891906110de565b60405180910390f35b6101f9610a88565b6040516102069190611108565b60405180910390f35b610217610aae565b6040516102269392919061113e565b60405180910390f35b610237610b69565b6040516102449190611196565b60405180910390f35b610255610b8f565b6040516102629190610eac565b60405180910390f35b610273610c26565b005b6000600160009054906101000a900473ffffffffffffffffffffffffffffffffffffffff1673ffffffffffffffffffffffffffffffffffffffff16637de614f06040518163ffffffff1660e01b8152600401602060405180830381865afa1580156102e4573d6000803e3d6000fd5b505050506040513d601f19601f8201168201806040525081019061030891906111c6565b905090565b600360009054906101000a900473ffffffffffffffffffffffffffffffffffffffff1673ffffffffffffffffffffffffffffffffffffffff163373ffffffffffffffffffffffffffffffffffffffff161461039d576040517f08c379a000000000000000000000000000000000000000000000000000000000815260040161039490611250565b60405180910390fd5b600160009054906101000a900473ffffffffffffffffffffffffffffffffffffffff1673ffffffffffffffffffffffffffffffffffffffff16639a4e8ecf826040518263ffffffff1660e01b81526004016103f89190610eac565b600060405180830381600087803b15801561041257600080fd5b505af1158015610426573d6000803e3d6000fd5b5050505050565b600360009054906101000a900473ffffffffffffffffffffffffffffffffffffffff1673ffffffffffffffffffffffffffffffffffffffff163373ffffffffffffffffffffffffffffffffffffffff16146104bd576040517f08c379a00000000000000000000000000000000000000000000000000000000081526004016104b490611250565b60405180910390fd5b8273ffffffffffffffffffffffffffffffffffffffff1663a9059cbb83836040518363ffffffff1660e01b81526004016104f8929190611270565b6020604051808303816000875af1158015610517573d6000803e3d6000fd5b505050506040513d601f19601f8201168201806040525081019061053b91906112c5565b50505050565b600260009054906101000a900473ffffffffffffffffffffffffffffffffffffffff1681565b600360009054906101000a900473ffffffffffffffffffffffffffffffffffffffff1673ffffffffffffffffffffffffffffffffffffffff163373ffffffffffffffffffffffffffffffffffffffff16146105f7576040517f08c379a00000000000000000000000000000000000000000000000000000000081526004016105ee90611250565b60405180910390fd5b600073ffffffffffffffffffffffffffffffffffffffff168173ffffffffffffffffffffffffffffffffffffffff1603610666576040517f08c379a000000000000000000000000000000000000000000000000000000000815260040161065d9061133e565b60405180910390fd5b80600260006101000a81548173ffffffffffffffffffffffffffffffffffffffff021916908373ffffffffffffffffffffffffffffffffffffffff16021790555050565b600360009054906101000a900473ffffffffffffffffffffffffffffffffffffffff1673ffffffffffffffffffffffffffffffffffffffff163373ffffffffffffffffffffffffffffffffffffffff161461073a576040517f08c379a000000000000000000000000000000000000000000000000000000000815260040161073190611250565b60405180910390fd5b600073ffffffffffffffffffffffffffffffffffffffff168173ffffffffffffffffffffffffffffffffffffffff16036107a9576040517f08c379a00000000000000000000000000000000000000000000000000000000081526004016107a0906113aa565b60405180910390fd5b80600160006101000a81548173ffffffffffffffffffffffffffffffffffffffff021916908373ffffffffffffffffffffffffffffffffffffffff16021790555050565b600360009054906101000a900473ffffffffffffffffffffffffffffffffffffffff1673ffffffffffffffffffffffffffffffffffffffff163373ffffffffffffffffffffffffffffffffffffffff161461087d576040517f08c379a000000000000000000000000000000000000000000000000000000000815260040161087490611250565b60405180910390fd5b600260009054906101000a900473ffffffffffffffffffffffffffffffffffffffff1673ffffffffffffffffffffffffffffffffffffffff1663a9059cbb83836040518363ffffffff1660e01b81526004016108da929190611270565b6020604051808303816000875af11580156108f9573d6000803e3d6000fd5b505050506040513d601f19601f8201168201806040525081019061091d91906112c5565b505050565b600360009054906101000a900473ffffffffffffffffffffffffffffffffffffffff1673ffffffffffffffffffffffffffffffffffffffff163373ffffffffffffffffffffffffffffffffffffffff16146109b2576040517f08c379a00000000000000000000000000000000000000000000000000000000081526004016109a990611250565b60405180910390fd5b600073ffffffffffffffffffffffffffffffffffffffff168173ffffffffffffffffffffffffffffffffffffffff1603610a21576040517f08c379a0000000000000000000000000000000000000000000000000000000008152600401610a1890611416565b60405180910390fd5b806000806101000a81548173ffffffffffffffffffffffffffffffffffffffff021916908373ffffffffffffffffffffffffffffffffffffffff16021790555050565b60008054906101000a900473ffffffffffffffffffffffffffffffffffffffff1681565b600360009054906101000a900473ffffffffffffffffffffffffffffffffffffffff1681565b6000806000600160009054906101000a900473ffffffffffffffffffffffffffffffffffffffff1673ffffffffffffffffffffffffffffffffffffffff1663a3b9e39d6040518163ffffffff1660e01b815260040161010060405180830381865afa158015610b21573d6000803e3d6000fd5b505050506040513d601f19601f82011682018060405250810190610b459190611436565b90919293949550909192939450909150905050809350819450829550505050909192565b600160009054906101000a900473ffffffffffffffffffffffffffffffffffffffff1681565b60008060009054906101000a900473ffffffffffffffffffffffffffffffffffffffff1673ffffffffffffffffffffffffffffffffffffffff1663f29768716040518163ffffffff1660e01b8152600401602060405180830381865afa158015610bfd573d6000803e3d6000fd5b505050506040513d601f19601f82011682018060405250810190610c2191906111c6565b905090565b600360009054906101000a900473ffffffffffffffffffffffffffffffffffffffff1673ffffffffffffffffffffffffffffffffffffffff163373ffffffffffffffffffffffffffffffffffffffff1614610cb6576040517f08c379a0000000000000000000000000000000000000000000000000000000008152600401610cad90611250565b60405180910390fd5b6000600160009054906101000a900473ffffffffffffffffffffffffffffffffffffffff1673ffffffffffffffffffffffffffffffffffffffff16637de614f06040518163ffffffff1660e01b8152600401602060405180830381865afa158015610d25573d6000803e3d6000fd5b505050506040513d601f19601f82011682018060405250810190610d4991906111c6565b9050600260009054906101000a900473ffffffffffffffffffffffffffffffffffffffff1673ffffffffffffffffffffffffffffffffffffffff1663095ea7b3600160009054906101000a900473ffffffffffffffffffffffffffffffffffffffff16836040518363ffffffff1660e01b8152600401610dca929190611270565b6020604051808303816000875af1158015610de9573d6000803e3d6000fd5b505050506040513d601f19601f82011682018060405250810190610e0d91906112c5565b50600160009054906101000a900473ffffffffffffffffffffffffffffffffffffffff1673ffffffffffffffffffffffffffffffffffffffff1663f966ade76040518163ffffffff1660e01b8152600401600060405180830381600087803b158015610e7857600080fd5b505af1158015610e8c573d6000803e3d6000fd5b5050505050565b6000819050919050565b610ea681610e93565b82525050565b6000602082019050610ec16000830184610e9d565b92915050565b600080fd5b610ed581610e93565b8114610ee057600080fd5b50565b600081359050610ef281610ecc565b92915050565b600060208284031215610f0e57610f0d610ec7565b5b6000610f1c84828501610ee3565b91505092915050565b600073ffffffffffffffffffffffffffffffffffffffff82169050919050565b6000610f5082610f25565b9050919050565b610f6081610f45565b8114610f6b57600080fd5b50565b600081359050610f7d81610f57565b92915050565b600080600060608486031215610f9c57610f9b610ec7565b5b6000610faa86828701610f6e565b9350506020610fbb86828701610f6e565b9250506040610fcc86828701610ee3565b9150509250925092565b6000819050919050565b6000610ffb610ff6610ff184610f25565b610fd6565b610f25565b9050919050565b600061100d82610fe0565b9050919050565b600061101f82611002565b9050919050565b61102f81611014565b82525050565b600060208201905061104a6000830184611026565b92915050565b60006020828403121561106657611065610ec7565b5b600061107484828501610f6e565b91505092915050565b6000806040838503121561109457611093610ec7565b5b60006110a285828601610f6e565b92505060206110b385828601610ee3565b9150509250929050565b60006110c882611002565b9050919050565b6110d8816110bd565b82525050565b60006020820190506110f360008301846110cf565b92915050565b61110281610f45565b82525050565b600060208201905061111d60008301846110f9565b92915050565b60008115159050919050565b61113881611123565b82525050565b60006060820190506111536000830186610e9d565b6111606020830185610e9d565b61116d604083018461112f565b949350505050565b600061118082611002565b9050919050565b61119081611175565b82525050565b60006020820190506111ab6000830184611187565b92915050565b6000815190506111c081610ecc565b92915050565b6000602082840312156111dc576111db610ec7565b5b60006111ea848285016111b1565b91505092915050565b600082825260208201905092915050565b7f4e6f7420617574686f72697a6564000000000000000000000000000000000000600082015250565b600061123a600e836111f3565b915061124582611204565b602082019050919050565b600060208201905081810360008301526112698161122d565b9050919050565b600060408201905061128560008301856110f9565b6112926020830184610e9d565b9392505050565b6112a281611123565b81146112ad57600080fd5b50565b6000815190506112bf81611299565b92915050565b6000602082840312156112db576112da610ec7565b5b60006112e9848285016112b0565b91505092915050565b7f496e76616c6964204355534420746f6b656e2061646472657373000000000000600082015250565b6000611328601a836111f3565b9150611333826112f2565b602082019050919050565b600060208201905081810360008301526113578161131b565b9050919050565b7f496e76616c6964206c6f616e206d616e61676572206164647265737300000000600082015250565b6000611394601c836111f3565b915061139f8261135e565b602082019050919050565b600060208201905081810360008301526113c381611387565b9050919050565b7f496e76616c696420656967656e20616464726573730000000000000000000000600082015250565b60006114006015836111f3565b915061140b826113ca565b602082019050919050565b6000602082019050818103600083015261142f816113f3565b9050919050565b600080600080600080600080610100898b03121561145757611456610ec7565b5b60006114658b828c016111b1565b98505060206114768b828c016111b1565b97505060406114878b828c016111b1565b96505060606114988b828c016111b1565b95505060806114a98b828c016112b0565b94505060a06114ba8b828c016111b1565b93505060c06114cb8b828c016111b1565b92505060e06114dc8b828c016112b0565b915050929598509295989093965056fea26469706673582212201801ce5a4037ce51df9981857b55b0ea5beaab99f0ee94f1601753118cb6eb9264736f6c634300081c0033",
  "linkReferences": {},
  "deployedLinkReferences": {}
}